{
	"contracts/_demo.sol": {
		"EventContract": {
			"abi": [
				{
					"inputs": [
						{
							"internalType": "uint256",
							"name": "id",
							"type": "uint256"
						},
						{
							"internalType": "uint256",
							"name": "quantity",
							"type": "uint256"
						}
					],
					"name": "buyTicket",
					"outputs": [],
					"stateMutability": "payable",
					"type": "function"
				},
				{
					"inputs": [
						{
							"internalType": "string",
							"name": "name",
							"type": "string"
						},
						{
							"internalType": "uint256",
							"name": "date",
							"type": "uint256"
						},
						{
							"internalType": "uint256",
							"name": "price",
							"type": "uint256"
						},
						{
							"internalType": "uint256",
							"name": "ticketCount",
							"type": "uint256"
						}
					],
					"name": "createEvent",
					"outputs": [],
					"stateMutability": "nonpayable",
					"type": "function"
				},
				{
					"inputs": [
						{
							"internalType": "uint256",
							"name": "",
							"type": "uint256"
						}
					],
					"name": "events",
					"outputs": [
						{
							"internalType": "address",
							"name": "organizer",
							"type": "address"
						},
						{
							"internalType": "string",
							"name": "name",
							"type": "string"
						},
						{
							"internalType": "uint256",
							"name": "date",
							"type": "uint256"
						},
						{
							"internalType": "uint256",
							"name": "price",
							"type": "uint256"
						},
						{
							"internalType": "uint256",
							"name": "ticketCount",
							"type": "uint256"
						},
						{
							"internalType": "uint256",
							"name": "ticketRemain",
							"type": "uint256"
						}
					],
					"stateMutability": "view",
					"type": "function"
				},
				{
					"inputs": [],
					"name": "nextId",
					"outputs": [
						{
							"internalType": "uint256",
							"name": "",
							"type": "uint256"
						}
					],
					"stateMutability": "view",
					"type": "function"
				},
				{
					"inputs": [
						{
							"internalType": "address",
							"name": "",
							"type": "address"
						},
						{
							"internalType": "uint256",
							"name": "",
							"type": "uint256"
						}
					],
					"name": "tickets",
					"outputs": [
						{
							"internalType": "uint256",
							"name": "",
							"type": "uint256"
						}
					],
					"stateMutability": "view",
					"type": "function"
				},
				{
					"inputs": [
						{
							"internalType": "uint256",
							"name": "eventId",
							"type": "uint256"
						},
						{
							"internalType": "uint256",
							"name": "quantity",
							"type": "uint256"
						},
						{
							"internalType": "address",
							"name": "to",
							"type": "address"
						}
					],
					"name": "transferTicket",
					"outputs": [],
					"stateMutability": "nonpayable",
					"type": "function"
				}
			],
			"devdoc": {
				"kind": "dev",
				"methods": {},
				"version": 1
			},
			"evm": {
				"assembly": "    /* \"contracts/_demo.sol\":74:1721  contract EventContract {... */\n  mstore(0x40, 0x80)\n  callvalue\n  dup1\n  iszero\n  tag_1\n  jumpi\n  0x00\n  dup1\n  revert\ntag_1:\n  pop\n  dataSize(sub_0)\n  dup1\n  dataOffset(sub_0)\n  0x00\n  codecopy\n  0x00\n  return\nstop\n\nsub_0: assembly {\n        /* \"contracts/_demo.sol\":74:1721  contract EventContract {... */\n      mstore(0x40, 0x80)\n      jumpi(tag_1, lt(calldatasize, 0x04))\n      shr(0xe0, calldataload(0x00))\n      dup1\n      0x0374ab0b\n      eq\n      tag_2\n      jumpi\n      dup1\n      0x0b791430\n      eq\n      tag_3\n      jumpi\n      dup1\n      0x298ec208\n      eq\n      tag_4\n      jumpi\n      dup1\n      0x61b8ce8c\n      eq\n      tag_5\n      jumpi\n      dup1\n      0xdae7a13c\n      eq\n      tag_6\n      jumpi\n      dup1\n      0xf086a09b\n      eq\n      tag_7\n      jumpi\n    tag_1:\n      0x00\n      dup1\n      revert\n        /* \"contracts/_demo.sol\":405:796  function createEvent(string memory name, uint date, uint price, uint ticketCount) external {... */\n    tag_2:\n      callvalue\n      dup1\n      iszero\n      tag_8\n      jumpi\n      0x00\n      dup1\n      revert\n    tag_8:\n      pop\n      tag_9\n      0x04\n      dup1\n      calldatasize\n      sub\n      dup2\n      add\n      swap1\n      tag_10\n      swap2\n      swap1\n      tag_11\n      jump\t// in\n    tag_10:\n      tag_12\n      jump\t// in\n    tag_9:\n      stop\n        /* \"contracts/_demo.sol\":278:312  mapping(uint=>Event) public events */\n    tag_3:\n      callvalue\n      dup1\n      iszero\n      tag_13\n      jumpi\n      0x00\n      dup1\n      revert\n    tag_13:\n      pop\n      tag_14\n      0x04\n      dup1\n      calldatasize\n      sub\n      dup2\n      add\n      swap1\n      tag_15\n      swap2\n      swap1\n      tag_16\n      jump\t// in\n    tag_15:\n      tag_17\n      jump\t// in\n    tag_14:\n      mload(0x40)\n      tag_18\n      swap7\n      swap6\n      swap5\n      swap4\n      swap3\n      swap2\n      swap1\n      tag_19\n      jump\t// in\n    tag_18:\n      mload(0x40)\n      dup1\n      swap2\n      sub\n      swap1\n      return\n        /* \"contracts/_demo.sol\":804:1295  function buyTicket(uint id, uint quantity) external payable {... */\n    tag_4:\n      tag_20\n      0x04\n      dup1\n      calldatasize\n      sub\n      dup2\n      add\n      swap1\n      tag_21\n      swap2\n      swap1\n      tag_22\n      jump\t// in\n    tag_21:\n      tag_23\n      jump\t// in\n    tag_20:\n      stop\n        /* \"contracts/_demo.sol\":378:396  uint public nextId */\n    tag_5:\n      callvalue\n      dup1\n      iszero\n      tag_24\n      jumpi\n      0x00\n      dup1\n      revert\n    tag_24:\n      pop\n      tag_25\n      tag_26\n      jump\t// in\n    tag_25:\n      mload(0x40)\n      tag_27\n      swap2\n      swap1\n      tag_28\n      jump\t// in\n    tag_27:\n      mload(0x40)\n      dup1\n      swap2\n      sub\n      swap1\n      return\n        /* \"contracts/_demo.sol\":319:371  mapping(address=>mapping(uint=>uint)) public tickets */\n    tag_6:\n      callvalue\n      dup1\n      iszero\n      tag_29\n      jumpi\n      0x00\n      dup1\n      revert\n    tag_29:\n      pop\n      tag_30\n      0x04\n      dup1\n      calldatasize\n      sub\n      dup2\n      add\n      swap1\n      tag_31\n      swap2\n      swap1\n      tag_32\n      jump\t// in\n    tag_31:\n      tag_33\n      jump\t// in\n    tag_30:\n      mload(0x40)\n      tag_34\n      swap2\n      swap1\n      tag_28\n      jump\t// in\n    tag_34:\n      mload(0x40)\n      dup1\n      swap2\n      sub\n      swap1\n      return\n        /* \"contracts/_demo.sol\":1303:1718  function transferTicket(uint eventId, uint quantity, address to) external{... */\n    tag_7:\n      callvalue\n      dup1\n      iszero\n      tag_35\n      jumpi\n      0x00\n      dup1\n      revert\n    tag_35:\n      pop\n      tag_36\n      0x04\n      dup1\n      calldatasize\n      sub\n      dup2\n      add\n      swap1\n      tag_37\n      swap2\n      swap1\n      tag_38\n      jump\t// in\n    tag_37:\n      tag_39\n      jump\t// in\n    tag_36:\n      stop\n        /* \"contracts/_demo.sol\":405:796  function createEvent(string memory name, uint date, uint price, uint ticketCount) external {... */\n    tag_12:\n        /* \"contracts/_demo.sol\":520:535  block.timestamp */\n      timestamp\n        /* \"contracts/_demo.sol\":515:519  date */\n      dup4\n        /* \"contracts/_demo.sol\":515:535  date>block.timestamp */\n      gt\n        /* \"contracts/_demo.sol\":507:578  require(date>block.timestamp, \"You can organize event for future date\") */\n      tag_41\n      jumpi\n      mload(0x40)\n      0x08c379a000000000000000000000000000000000000000000000000000000000\n      dup2\n      mstore\n      0x04\n      add\n      tag_42\n      swap1\n      tag_43\n      jump\t// in\n    tag_42:\n      mload(0x40)\n      dup1\n      swap2\n      sub\n      swap1\n      revert\n    tag_41:\n        /* \"contracts/_demo.sol\":609:610  0 */\n      0x00\n        /* \"contracts/_demo.sol\":597:608  ticketCount */\n      dup2\n        /* \"contracts/_demo.sol\":597:610  ticketCount>0 */\n      gt\n        /* \"contracts/_demo.sol\":589:677  require(ticketCount>0, \"You can organize event only  if you create more than 0 tickets\") */\n      tag_44\n      jumpi\n      mload(0x40)\n      0x08c379a000000000000000000000000000000000000000000000000000000000\n      dup2\n      mstore\n      0x04\n      add\n      tag_45\n      swap1\n      tag_46\n      jump\t// in\n    tag_45:\n      mload(0x40)\n      dup1\n      swap2\n      sub\n      swap1\n      revert\n    tag_44:\n        /* \"contracts/_demo.sol\":707:769  Event(msg.sender, name, date, price, ticketCount, ticketCount) */\n      mload(0x40)\n      dup1\n      0xc0\n      add\n      0x40\n      mstore\n      dup1\n        /* \"contracts/_demo.sol\":713:723  msg.sender */\n      caller\n        /* \"contracts/_demo.sol\":707:769  Event(msg.sender, name, date, price, ticketCount, ticketCount) */\n      0xffffffffffffffffffffffffffffffffffffffff\n      and\n      dup2\n      mstore\n      0x20\n      add\n        /* \"contracts/_demo.sol\":725:729  name */\n      dup6\n        /* \"contracts/_demo.sol\":707:769  Event(msg.sender, name, date, price, ticketCount, ticketCount) */\n      dup2\n      mstore\n      0x20\n      add\n        /* \"contracts/_demo.sol\":731:735  date */\n      dup5\n        /* \"contracts/_demo.sol\":707:769  Event(msg.sender, name, date, price, ticketCount, ticketCount) */\n      dup2\n      mstore\n      0x20\n      add\n        /* \"contracts/_demo.sol\":737:742  price */\n      dup4\n        /* \"contracts/_demo.sol\":707:769  Event(msg.sender, name, date, price, ticketCount, ticketCount) */\n      dup2\n      mstore\n      0x20\n      add\n        /* \"contracts/_demo.sol\":744:755  ticketCount */\n      dup3\n        /* \"contracts/_demo.sol\":707:769  Event(msg.sender, name, date, price, ticketCount, ticketCount) */\n      dup2\n      mstore\n      0x20\n      add\n        /* \"contracts/_demo.sol\":757:768  ticketCount */\n      dup3\n        /* \"contracts/_demo.sol\":707:769  Event(msg.sender, name, date, price, ticketCount, ticketCount) */\n      dup2\n      mstore\n      pop\n        /* \"contracts/_demo.sol\":690:696  events */\n      0x00\n        /* \"contracts/_demo.sol\":690:704  events[nextId] */\n      dup1\n        /* \"contracts/_demo.sol\":697:703  nextId */\n      sload(0x02)\n        /* \"contracts/_demo.sol\":690:704  events[nextId] */\n      dup2\n      mstore\n      0x20\n      add\n      swap1\n      dup2\n      mstore\n      0x20\n      add\n      0x00\n      keccak256\n        /* \"contracts/_demo.sol\":690:769  events[nextId] = Event(msg.sender, name, date, price, ticketCount, ticketCount) */\n      0x00\n      dup3\n      add\n      mload\n      dup2\n      0x00\n      add\n      exp(0x0100, 0x00)\n      dup2\n      sload\n      dup2\n      0xffffffffffffffffffffffffffffffffffffffff\n      mul\n      not\n      and\n      swap1\n      dup4\n      0xffffffffffffffffffffffffffffffffffffffff\n      and\n      mul\n      or\n      swap1\n      sstore\n      pop\n      0x20\n      dup3\n      add\n      mload\n      dup2\n      0x01\n      add\n      swap1\n      dup2\n      tag_47\n      swap2\n      swap1\n      tag_48\n      jump\t// in\n    tag_47:\n      pop\n      0x40\n      dup3\n      add\n      mload\n      dup2\n      0x02\n      add\n      sstore\n      0x60\n      dup3\n      add\n      mload\n      dup2\n      0x03\n      add\n      sstore\n      0x80\n      dup3\n      add\n      mload\n      dup2\n      0x04\n      add\n      sstore\n      0xa0\n      dup3\n      add\n      mload\n      dup2\n      0x05\n      add\n      sstore\n      swap1\n      pop\n      pop\n        /* \"contracts/_demo.sol\":780:786  nextId */\n      0x02\n      0x00\n        /* \"contracts/_demo.sol\":780:788  nextId++ */\n      dup2\n      sload\n      dup1\n      swap3\n      swap2\n      swap1\n      tag_49\n      swap1\n      tag_50\n      jump\t// in\n    tag_49:\n      swap2\n      swap1\n      pop\n      sstore\n      pop\n        /* \"contracts/_demo.sol\":405:796  function createEvent(string memory name, uint date, uint price, uint ticketCount) external {... */\n      pop\n      pop\n      pop\n      pop\n      jump\t// out\n        /* \"contracts/_demo.sol\":278:312  mapping(uint=>Event) public events */\n    tag_17:\n      mstore(0x20, 0x00)\n      dup1\n      0x00\n      mstore\n      keccak256(0x00, 0x40)\n      0x00\n      swap2\n      pop\n      swap1\n      pop\n      dup1\n      0x00\n      add\n      0x00\n      swap1\n      sload\n      swap1\n      0x0100\n      exp\n      swap1\n      div\n      0xffffffffffffffffffffffffffffffffffffffff\n      and\n      swap1\n      dup1\n      0x01\n      add\n      dup1\n      sload\n      tag_51\n      swap1\n      tag_52\n      jump\t// in\n    tag_51:\n      dup1\n      0x1f\n      add\n      0x20\n      dup1\n      swap2\n      div\n      mul\n      0x20\n      add\n      mload(0x40)\n      swap1\n      dup2\n      add\n      0x40\n      mstore\n      dup1\n      swap3\n      swap2\n      swap1\n      dup2\n      dup2\n      mstore\n      0x20\n      add\n      dup3\n      dup1\n      sload\n      tag_53\n      swap1\n      tag_52\n      jump\t// in\n    tag_53:\n      dup1\n      iszero\n      tag_54\n      jumpi\n      dup1\n      0x1f\n      lt\n      tag_55\n      jumpi\n      0x0100\n      dup1\n      dup4\n      sload\n      div\n      mul\n      dup4\n      mstore\n      swap2\n      0x20\n      add\n      swap2\n      jump(tag_54)\n    tag_55:\n      dup3\n      add\n      swap2\n      swap1\n      0x00\n      mstore\n      keccak256(0x00, 0x20)\n      swap1\n    tag_56:\n      dup2\n      sload\n      dup2\n      mstore\n      swap1\n      0x01\n      add\n      swap1\n      0x20\n      add\n      dup1\n      dup4\n      gt\n      tag_56\n      jumpi\n      dup3\n      swap1\n      sub\n      0x1f\n      and\n      dup3\n      add\n      swap2\n    tag_54:\n      pop\n      pop\n      pop\n      pop\n      pop\n      swap1\n      dup1\n      0x02\n      add\n      sload\n      swap1\n      dup1\n      0x03\n      add\n      sload\n      swap1\n      dup1\n      0x04\n      add\n      sload\n      swap1\n      dup1\n      0x05\n      add\n      sload\n      swap1\n      pop\n      dup7\n      jump\t// out\n        /* \"contracts/_demo.sol\":804:1295  function buyTicket(uint id, uint quantity) external payable {... */\n    tag_23:\n        /* \"contracts/_demo.sol\":901:902  0 */\n      0x00\n        /* \"contracts/_demo.sol\":884:890  events */\n      dup1\n        /* \"contracts/_demo.sol\":884:894  events[id] */\n      0x00\n        /* \"contracts/_demo.sol\":891:893  id */\n      dup5\n        /* \"contracts/_demo.sol\":884:894  events[id] */\n      dup2\n      mstore\n      0x20\n      add\n      swap1\n      dup2\n      mstore\n      0x20\n      add\n      0x00\n      keccak256\n        /* \"contracts/_demo.sol\":884:899  events[id].date */\n      0x02\n      add\n      sload\n        /* \"contracts/_demo.sol\":884:902  events[id].date!=0 */\n      sub\n        /* \"contracts/_demo.sol\":875:927  require (events[id].date!=0, \"Event does not exist\") */\n      tag_58\n      jumpi\n      mload(0x40)\n      0x08c379a000000000000000000000000000000000000000000000000000000000\n      dup2\n      mstore\n      0x04\n      add\n      tag_59\n      swap1\n      tag_60\n      jump\t// in\n    tag_59:\n      mload(0x40)\n      dup1\n      swap2\n      sub\n      swap1\n      revert\n    tag_58:\n        /* \"contracts/_demo.sol\":963:978  block.timestamp */\n      timestamp\n        /* \"contracts/_demo.sol\":947:953  events */\n      0x00\n        /* \"contracts/_demo.sol\":947:957  events[id] */\n      dup1\n        /* \"contracts/_demo.sol\":954:956  id */\n      dup5\n        /* \"contracts/_demo.sol\":947:957  events[id] */\n      dup2\n      mstore\n      0x20\n      add\n      swap1\n      dup2\n      mstore\n      0x20\n      add\n      0x00\n      keccak256\n        /* \"contracts/_demo.sol\":947:962  events[id].date */\n      0x02\n      add\n      sload\n        /* \"contracts/_demo.sol\":947:978  events[id].date>block.timestamp */\n      gt\n        /* \"contracts/_demo.sol\":938:1008  require (events[id].date>block.timestamp, \"Event has already occured\") */\n      tag_61\n      jumpi\n      mload(0x40)\n      0x08c379a000000000000000000000000000000000000000000000000000000000\n      dup2\n      mstore\n      0x04\n      add\n      tag_62\n      swap1\n      tag_63\n      jump\t// in\n    tag_62:\n      mload(0x40)\n      dup1\n      swap2\n      sub\n      swap1\n      revert\n    tag_61:\n        /* \"contracts/_demo.sol\":1019:1039  Event storage _event */\n      0x00\n        /* \"contracts/_demo.sol\":1042:1048  events */\n      dup1\n        /* \"contracts/_demo.sol\":1042:1052  events[id] */\n      0x00\n        /* \"contracts/_demo.sol\":1049:1051  id */\n      dup5\n        /* \"contracts/_demo.sol\":1042:1052  events[id] */\n      dup2\n      mstore\n      0x20\n      add\n      swap1\n      dup2\n      mstore\n      0x20\n      add\n      0x00\n      keccak256\n        /* \"contracts/_demo.sol\":1019:1052  Event storage _event = events[id] */\n      swap1\n      pop\n        /* \"contracts/_demo.sol\":1097:1105  quantity */\n      dup2\n        /* \"contracts/_demo.sol\":1084:1090  _event */\n      dup2\n        /* \"contracts/_demo.sol\":1084:1096  _event.price */\n      0x03\n      add\n      sload\n        /* \"contracts/_demo.sol\":1084:1105  _event.price*quantity */\n      tag_64\n      swap2\n      swap1\n      tag_65\n      jump\t// in\n    tag_64:\n        /* \"contracts/_demo.sol\":1072:1081  msg.value */\n      callvalue\n        /* \"contracts/_demo.sol\":1072:1106  msg.value==(_event.price*quantity) */\n      eq\n        /* \"contracts/_demo.sol\":1063:1131  require (msg.value==(_event.price*quantity), \"Ethere is not enough\") */\n      tag_66\n      jumpi\n      mload(0x40)\n      0x08c379a000000000000000000000000000000000000000000000000000000000\n      dup2\n      mstore\n      0x04\n      add\n      tag_67\n      swap1\n      tag_68\n      jump\t// in\n    tag_67:\n      mload(0x40)\n      dup1\n      swap2\n      sub\n      swap1\n      revert\n    tag_66:\n        /* \"contracts/_demo.sol\":1172:1180  quantity */\n      dup2\n        /* \"contracts/_demo.sol\":1151:1157  _event */\n      dup2\n        /* \"contracts/_demo.sol\":1151:1170  _event.ticketRemain */\n      0x05\n      add\n      sload\n        /* \"contracts/_demo.sol\":1151:1180  _event.ticketRemain>=quantity */\n      lt\n      iszero\n        /* \"contracts/_demo.sol\":1142:1203  require (_event.ticketRemain>=quantity, \"Not enough tickets\") */\n      tag_69\n      jumpi\n      mload(0x40)\n      0x08c379a000000000000000000000000000000000000000000000000000000000\n      dup2\n      mstore\n      0x04\n      add\n      tag_70\n      swap1\n      tag_71\n      jump\t// in\n    tag_70:\n      mload(0x40)\n      dup1\n      swap2\n      sub\n      swap1\n      revert\n    tag_69:\n        /* \"contracts/_demo.sol\":1235:1243  quantity */\n      dup2\n        /* \"contracts/_demo.sol\":1214:1220  _event */\n      dup2\n        /* \"contracts/_demo.sol\":1214:1233  _event.ticketRemain */\n      0x05\n      add\n      0x00\n        /* \"contracts/_demo.sol\":1214:1243  _event.ticketRemain-=quantity */\n      dup3\n      dup3\n      sload\n      tag_72\n      swap2\n      swap1\n      tag_73\n      jump\t// in\n    tag_72:\n      swap3\n      pop\n      pop\n      dup2\n      swap1\n      sstore\n      pop\n        /* \"contracts/_demo.sol\":1279:1287  quantity */\n      dup2\n        /* \"contracts/_demo.sol\":1254:1261  tickets */\n      0x01\n        /* \"contracts/_demo.sol\":1254:1273  tickets[msg.sender] */\n      0x00\n        /* \"contracts/_demo.sol\":1262:1272  msg.sender */\n      caller\n        /* \"contracts/_demo.sol\":1254:1273  tickets[msg.sender] */\n      0xffffffffffffffffffffffffffffffffffffffff\n      and\n      0xffffffffffffffffffffffffffffffffffffffff\n      and\n      dup2\n      mstore\n      0x20\n      add\n      swap1\n      dup2\n      mstore\n      0x20\n      add\n      0x00\n      keccak256\n        /* \"contracts/_demo.sol\":1254:1277  tickets[msg.sender][id] */\n      0x00\n        /* \"contracts/_demo.sol\":1274:1276  id */\n      dup6\n        /* \"contracts/_demo.sol\":1254:1277  tickets[msg.sender][id] */\n      dup2\n      mstore\n      0x20\n      add\n      swap1\n      dup2\n      mstore\n      0x20\n      add\n      0x00\n      keccak256\n      0x00\n        /* \"contracts/_demo.sol\":1254:1287  tickets[msg.sender][id]+=quantity */\n      dup3\n      dup3\n      sload\n      tag_74\n      swap2\n      swap1\n      tag_75\n      jump\t// in\n    tag_74:\n      swap3\n      pop\n      pop\n      dup2\n      swap1\n      sstore\n      pop\n        /* \"contracts/_demo.sol\":864:1295  {... */\n      pop\n        /* \"contracts/_demo.sol\":804:1295  function buyTicket(uint id, uint quantity) external payable {... */\n      pop\n      pop\n      jump\t// out\n        /* \"contracts/_demo.sol\":378:396  uint public nextId */\n    tag_26:\n      sload(0x02)\n      dup2\n      jump\t// out\n        /* \"contracts/_demo.sol\":319:371  mapping(address=>mapping(uint=>uint)) public tickets */\n    tag_33:\n      mstore(0x20, 0x01)\n      dup2\n      0x00\n      mstore\n      mstore(0x20, keccak256(0x00, 0x40))\n      dup1\n      0x00\n      mstore\n      keccak256(0x00, 0x40)\n      0x00\n      swap2\n      pop\n      swap2\n      pop\n      pop\n      sload\n      dup2\n      jump\t// out\n        /* \"contracts/_demo.sol\":1303:1718  function transferTicket(uint eventId, uint quantity, address to) external{... */\n    tag_39:\n        /* \"contracts/_demo.sol\":1417:1418  0 */\n      0x00\n        /* \"contracts/_demo.sol\":1395:1401  events */\n      dup1\n        /* \"contracts/_demo.sol\":1395:1410  events[eventId] */\n      0x00\n        /* \"contracts/_demo.sol\":1402:1409  eventId */\n      dup6\n        /* \"contracts/_demo.sol\":1395:1410  events[eventId] */\n      dup2\n      mstore\n      0x20\n      add\n      swap1\n      dup2\n      mstore\n      0x20\n      add\n      0x00\n      keccak256\n        /* \"contracts/_demo.sol\":1395:1415  events[eventId].date */\n      0x02\n      add\n      sload\n        /* \"contracts/_demo.sol\":1395:1418  events[eventId].date!=0 */\n      sub\n        /* \"contracts/_demo.sol\":1387:1443  require(events[eventId].date!=0, \"Event does not exist\") */\n      tag_77\n      jumpi\n      mload(0x40)\n      0x08c379a000000000000000000000000000000000000000000000000000000000\n      dup2\n      mstore\n      0x04\n      add\n      tag_78\n      swap1\n      tag_60\n      jump\t// in\n    tag_78:\n      mload(0x40)\n      dup1\n      swap2\n      sub\n      swap1\n      revert\n    tag_77:\n        /* \"contracts/_demo.sol\":1483:1498  block.timestamp */\n      timestamp\n        /* \"contracts/_demo.sol\":1462:1468  events */\n      0x00\n        /* \"contracts/_demo.sol\":1462:1477  events[eventId] */\n      dup1\n        /* \"contracts/_demo.sol\":1469:1476  eventId */\n      dup6\n        /* \"contracts/_demo.sol\":1462:1477  events[eventId] */\n      dup2\n      mstore\n      0x20\n      add\n      swap1\n      dup2\n      mstore\n      0x20\n      add\n      0x00\n      keccak256\n        /* \"contracts/_demo.sol\":1462:1482  events[eventId].date */\n      0x02\n      add\n      sload\n        /* \"contracts/_demo.sol\":1462:1498  events[eventId].date>block.timestamp */\n      gt\n        /* \"contracts/_demo.sol\":1454:1528  require(events[eventId].date>block.timestamp, \"Event has already occured\") */\n      tag_79\n      jumpi\n      mload(0x40)\n      0x08c379a000000000000000000000000000000000000000000000000000000000\n      dup2\n      mstore\n      0x04\n      add\n      tag_80\n      swap1\n      tag_63\n      jump\t// in\n    tag_80:\n      mload(0x40)\n      dup1\n      swap2\n      sub\n      swap1\n      revert\n    tag_79:\n        /* \"contracts/_demo.sol\":1577:1585  quantity */\n      dup2\n        /* \"contracts/_demo.sol\":1547:1554  tickets */\n      0x01\n        /* \"contracts/_demo.sol\":1547:1566  tickets[msg.sender] */\n      0x00\n        /* \"contracts/_demo.sol\":1555:1565  msg.sender */\n      caller\n        /* \"contracts/_demo.sol\":1547:1566  tickets[msg.sender] */\n      0xffffffffffffffffffffffffffffffffffffffff\n      and\n      0xffffffffffffffffffffffffffffffffffffffff\n      and\n      dup2\n      mstore\n      0x20\n      add\n      swap1\n      dup2\n      mstore\n      0x20\n      add\n      0x00\n      keccak256\n        /* \"contracts/_demo.sol\":1547:1575  tickets[msg.sender][eventId] */\n      0x00\n        /* \"contracts/_demo.sol\":1567:1574  eventId */\n      dup6\n        /* \"contracts/_demo.sol\":1547:1575  tickets[msg.sender][eventId] */\n      dup2\n      mstore\n      0x20\n      add\n      swap1\n      dup2\n      mstore\n      0x20\n      add\n      0x00\n      keccak256\n      sload\n        /* \"contracts/_demo.sol\":1547:1585  tickets[msg.sender][eventId]>=quantity */\n      lt\n      iszero\n        /* \"contracts/_demo.sol\":1539:1620  require(tickets[msg.sender][eventId]>=quantity, \"You don't have enough tickets.\") */\n      tag_81\n      jumpi\n      mload(0x40)\n      0x08c379a000000000000000000000000000000000000000000000000000000000\n      dup2\n      mstore\n      0x04\n      add\n      tag_82\n      swap1\n      tag_83\n      jump\t// in\n    tag_82:\n      mload(0x40)\n      dup1\n      swap2\n      sub\n      swap1\n      revert\n    tag_81:\n        /* \"contracts/_demo.sol\":1661:1669  quantity */\n      dup2\n        /* \"contracts/_demo.sol\":1631:1638  tickets */\n      0x01\n        /* \"contracts/_demo.sol\":1631:1650  tickets[msg.sender] */\n      0x00\n        /* \"contracts/_demo.sol\":1639:1649  msg.sender */\n      caller\n        /* \"contracts/_demo.sol\":1631:1650  tickets[msg.sender] */\n      0xffffffffffffffffffffffffffffffffffffffff\n      and\n      0xffffffffffffffffffffffffffffffffffffffff\n      and\n      dup2\n      mstore\n      0x20\n      add\n      swap1\n      dup2\n      mstore\n      0x20\n      add\n      0x00\n      keccak256\n        /* \"contracts/_demo.sol\":1631:1659  tickets[msg.sender][eventId] */\n      0x00\n        /* \"contracts/_demo.sol\":1651:1658  eventId */\n      dup6\n        /* \"contracts/_demo.sol\":1631:1659  tickets[msg.sender][eventId] */\n      dup2\n      mstore\n      0x20\n      add\n      swap1\n      dup2\n      mstore\n      0x20\n      add\n      0x00\n      keccak256\n      0x00\n        /* \"contracts/_demo.sol\":1631:1669  tickets[msg.sender][eventId]-=quantity */\n      dup3\n      dup3\n      sload\n      tag_84\n      swap2\n      swap1\n      tag_73\n      jump\t// in\n    tag_84:\n      swap3\n      pop\n      pop\n      dup2\n      swap1\n      sstore\n      pop\n        /* \"contracts/_demo.sol\":1702:1710  quantity */\n      dup2\n        /* \"contracts/_demo.sol\":1680:1687  tickets */\n      0x01\n        /* \"contracts/_demo.sol\":1680:1691  tickets[to] */\n      0x00\n        /* \"contracts/_demo.sol\":1688:1690  to */\n      dup4\n        /* \"contracts/_demo.sol\":1680:1691  tickets[to] */\n      0xffffffffffffffffffffffffffffffffffffffff\n      and\n      0xffffffffffffffffffffffffffffffffffffffff\n      and\n      dup2\n      mstore\n      0x20\n      add\n      swap1\n      dup2\n      mstore\n      0x20\n      add\n      0x00\n      keccak256\n        /* \"contracts/_demo.sol\":1680:1700  tickets[to][eventId] */\n      0x00\n        /* \"contracts/_demo.sol\":1692:1699  eventId */\n      dup6\n        /* \"contracts/_demo.sol\":1680:1700  tickets[to][eventId] */\n      dup2\n      mstore\n      0x20\n      add\n      swap1\n      dup2\n      mstore\n      0x20\n      add\n      0x00\n      keccak256\n      0x00\n        /* \"contracts/_demo.sol\":1680:1710  tickets[to][eventId]+=quantity */\n      dup3\n      dup3\n      sload\n      tag_85\n      swap2\n      swap1\n      tag_75\n      jump\t// in\n    tag_85:\n      swap3\n      pop\n      pop\n      dup2\n      swap1\n      sstore\n      pop\n        /* \"contracts/_demo.sol\":1303:1718  function transferTicket(uint eventId, uint quantity, address to) external{... */\n      pop\n      pop\n      pop\n      jump\t// out\n        /* \"#utility.yul\":7:82   */\n    tag_86:\n        /* \"#utility.yul\":40:46   */\n      0x00\n        /* \"#utility.yul\":73:75   */\n      0x40\n        /* \"#utility.yul\":67:76   */\n      mload\n        /* \"#utility.yul\":57:76   */\n      swap1\n      pop\n        /* \"#utility.yul\":7:82   */\n      swap1\n      jump\t// out\n        /* \"#utility.yul\":88:205   */\n    tag_87:\n        /* \"#utility.yul\":197:198   */\n      0x00\n        /* \"#utility.yul\":194:195   */\n      dup1\n        /* \"#utility.yul\":187:199   */\n      revert\n        /* \"#utility.yul\":211:328   */\n    tag_88:\n        /* \"#utility.yul\":320:321   */\n      0x00\n        /* \"#utility.yul\":317:318   */\n      dup1\n        /* \"#utility.yul\":310:322   */\n      revert\n        /* \"#utility.yul\":334:451   */\n    tag_89:\n        /* \"#utility.yul\":443:444   */\n      0x00\n        /* \"#utility.yul\":440:441   */\n      dup1\n        /* \"#utility.yul\":433:445   */\n      revert\n        /* \"#utility.yul\":457:574   */\n    tag_90:\n        /* \"#utility.yul\":566:567   */\n      0x00\n        /* \"#utility.yul\":563:564   */\n      dup1\n        /* \"#utility.yul\":556:568   */\n      revert\n        /* \"#utility.yul\":580:682   */\n    tag_91:\n        /* \"#utility.yul\":621:627   */\n      0x00\n        /* \"#utility.yul\":672:674   */\n      0x1f\n        /* \"#utility.yul\":668:675   */\n      not\n        /* \"#utility.yul\":663:665   */\n      0x1f\n        /* \"#utility.yul\":656:661   */\n      dup4\n        /* \"#utility.yul\":652:666   */\n      add\n        /* \"#utility.yul\":648:676   */\n      and\n        /* \"#utility.yul\":638:676   */\n      swap1\n      pop\n        /* \"#utility.yul\":580:682   */\n      swap2\n      swap1\n      pop\n      jump\t// out\n        /* \"#utility.yul\":688:868   */\n    tag_92:\n        /* \"#utility.yul\":736:813   */\n      0x4e487b7100000000000000000000000000000000000000000000000000000000\n        /* \"#utility.yul\":733:734   */\n      0x00\n        /* \"#utility.yul\":726:814   */\n      mstore\n        /* \"#utility.yul\":833:837   */\n      0x41\n        /* \"#utility.yul\":830:831   */\n      0x04\n        /* \"#utility.yul\":823:838   */\n      mstore\n        /* \"#utility.yul\":857:861   */\n      0x24\n        /* \"#utility.yul\":854:855   */\n      0x00\n        /* \"#utility.yul\":847:862   */\n      revert\n        /* \"#utility.yul\":874:1155   */\n    tag_93:\n        /* \"#utility.yul\":957:984   */\n      tag_152\n        /* \"#utility.yul\":979:983   */\n      dup3\n        /* \"#utility.yul\":957:984   */\n      tag_91\n      jump\t// in\n    tag_152:\n        /* \"#utility.yul\":949:955   */\n      dup2\n        /* \"#utility.yul\":945:985   */\n      add\n        /* \"#utility.yul\":1087:1093   */\n      dup2\n        /* \"#utility.yul\":1075:1085   */\n      dup2\n        /* \"#utility.yul\":1072:1094   */\n      lt\n        /* \"#utility.yul\":1051:1069   */\n      0xffffffffffffffff\n        /* \"#utility.yul\":1039:1049   */\n      dup3\n        /* \"#utility.yul\":1036:1070   */\n      gt\n        /* \"#utility.yul\":1033:1095   */\n      or\n        /* \"#utility.yul\":1030:1118   */\n      iszero\n      tag_153\n      jumpi\n        /* \"#utility.yul\":1098:1116   */\n      tag_154\n      tag_92\n      jump\t// in\n    tag_154:\n        /* \"#utility.yul\":1030:1118   */\n    tag_153:\n        /* \"#utility.yul\":1138:1148   */\n      dup1\n        /* \"#utility.yul\":1134:1136   */\n      0x40\n        /* \"#utility.yul\":1127:1149   */\n      mstore\n        /* \"#utility.yul\":917:1155   */\n      pop\n        /* \"#utility.yul\":874:1155   */\n      pop\n      pop\n      jump\t// out\n        /* \"#utility.yul\":1161:1290   */\n    tag_94:\n        /* \"#utility.yul\":1195:1201   */\n      0x00\n        /* \"#utility.yul\":1222:1242   */\n      tag_156\n      tag_86\n      jump\t// in\n    tag_156:\n        /* \"#utility.yul\":1212:1242   */\n      swap1\n      pop\n        /* \"#utility.yul\":1251:1284   */\n      tag_157\n        /* \"#utility.yul\":1279:1283   */\n      dup3\n        /* \"#utility.yul\":1271:1277   */\n      dup3\n        /* \"#utility.yul\":1251:1284   */\n      tag_93\n      jump\t// in\n    tag_157:\n        /* \"#utility.yul\":1161:1290   */\n      swap2\n      swap1\n      pop\n      jump\t// out\n        /* \"#utility.yul\":1296:1604   */\n    tag_95:\n        /* \"#utility.yul\":1358:1362   */\n      0x00\n        /* \"#utility.yul\":1448:1466   */\n      0xffffffffffffffff\n        /* \"#utility.yul\":1440:1446   */\n      dup3\n        /* \"#utility.yul\":1437:1467   */\n      gt\n        /* \"#utility.yul\":1434:1490   */\n      iszero\n      tag_159\n      jumpi\n        /* \"#utility.yul\":1470:1488   */\n      tag_160\n      tag_92\n      jump\t// in\n    tag_160:\n        /* \"#utility.yul\":1434:1490   */\n    tag_159:\n        /* \"#utility.yul\":1508:1537   */\n      tag_161\n        /* \"#utility.yul\":1530:1536   */\n      dup3\n        /* \"#utility.yul\":1508:1537   */\n      tag_91\n      jump\t// in\n    tag_161:\n        /* \"#utility.yul\":1500:1537   */\n      swap1\n      pop\n        /* \"#utility.yul\":1592:1596   */\n      0x20\n        /* \"#utility.yul\":1586:1590   */\n      dup2\n        /* \"#utility.yul\":1582:1597   */\n      add\n        /* \"#utility.yul\":1574:1597   */\n      swap1\n      pop\n        /* \"#utility.yul\":1296:1604   */\n      swap2\n      swap1\n      pop\n      jump\t// out\n        /* \"#utility.yul\":1610:1758   */\n    tag_96:\n        /* \"#utility.yul\":1708:1714   */\n      dup3\n        /* \"#utility.yul\":1703:1706   */\n      dup2\n        /* \"#utility.yul\":1698:1701   */\n      dup4\n        /* \"#utility.yul\":1685:1715   */\n      calldatacopy\n        /* \"#utility.yul\":1749:1750   */\n      0x00\n        /* \"#utility.yul\":1740:1746   */\n      dup4\n        /* \"#utility.yul\":1735:1738   */\n      dup4\n        /* \"#utility.yul\":1731:1747   */\n      add\n        /* \"#utility.yul\":1724:1751   */\n      mstore\n        /* \"#utility.yul\":1610:1758   */\n      pop\n      pop\n      pop\n      jump\t// out\n        /* \"#utility.yul\":1764:2189   */\n    tag_97:\n        /* \"#utility.yul\":1842:1847   */\n      0x00\n        /* \"#utility.yul\":1867:1933   */\n      tag_164\n        /* \"#utility.yul\":1883:1932   */\n      tag_165\n        /* \"#utility.yul\":1925:1931   */\n      dup5\n        /* \"#utility.yul\":1883:1932   */\n      tag_95\n      jump\t// in\n    tag_165:\n        /* \"#utility.yul\":1867:1933   */\n      tag_94\n      jump\t// in\n    tag_164:\n        /* \"#utility.yul\":1858:1933   */\n      swap1\n      pop\n        /* \"#utility.yul\":1956:1962   */\n      dup3\n        /* \"#utility.yul\":1949:1954   */\n      dup2\n        /* \"#utility.yul\":1942:1963   */\n      mstore\n        /* \"#utility.yul\":1994:1998   */\n      0x20\n        /* \"#utility.yul\":1987:1992   */\n      dup2\n        /* \"#utility.yul\":1983:1999   */\n      add\n        /* \"#utility.yul\":2032:2035   */\n      dup5\n        /* \"#utility.yul\":2023:2029   */\n      dup5\n        /* \"#utility.yul\":2018:2021   */\n      dup5\n        /* \"#utility.yul\":2014:2030   */\n      add\n        /* \"#utility.yul\":2011:2036   */\n      gt\n        /* \"#utility.yul\":2008:2120   */\n      iszero\n      tag_166\n      jumpi\n        /* \"#utility.yul\":2039:2118   */\n      tag_167\n      tag_90\n      jump\t// in\n    tag_167:\n        /* \"#utility.yul\":2008:2120   */\n    tag_166:\n        /* \"#utility.yul\":2129:2183   */\n      tag_168\n        /* \"#utility.yul\":2176:2182   */\n      dup5\n        /* \"#utility.yul\":2171:2174   */\n      dup3\n        /* \"#utility.yul\":2166:2169   */\n      dup6\n        /* \"#utility.yul\":2129:2183   */\n      tag_96\n      jump\t// in\n    tag_168:\n        /* \"#utility.yul\":1848:2189   */\n      pop\n        /* \"#utility.yul\":1764:2189   */\n      swap4\n      swap3\n      pop\n      pop\n      pop\n      jump\t// out\n        /* \"#utility.yul\":2209:2549   */\n    tag_98:\n        /* \"#utility.yul\":2265:2270   */\n      0x00\n        /* \"#utility.yul\":2314:2317   */\n      dup3\n        /* \"#utility.yul\":2307:2311   */\n      0x1f\n        /* \"#utility.yul\":2299:2305   */\n      dup4\n        /* \"#utility.yul\":2295:2312   */\n      add\n        /* \"#utility.yul\":2291:2318   */\n      slt\n        /* \"#utility.yul\":2281:2403   */\n      tag_170\n      jumpi\n        /* \"#utility.yul\":2322:2401   */\n      tag_171\n      tag_89\n      jump\t// in\n    tag_171:\n        /* \"#utility.yul\":2281:2403   */\n    tag_170:\n        /* \"#utility.yul\":2439:2445   */\n      dup2\n        /* \"#utility.yul\":2426:2446   */\n      calldataload\n        /* \"#utility.yul\":2464:2543   */\n      tag_172\n        /* \"#utility.yul\":2539:2542   */\n      dup5\n        /* \"#utility.yul\":2531:2537   */\n      dup3\n        /* \"#utility.yul\":2524:2528   */\n      0x20\n        /* \"#utility.yul\":2516:2522   */\n      dup7\n        /* \"#utility.yul\":2512:2529   */\n      add\n        /* \"#utility.yul\":2464:2543   */\n      tag_97\n      jump\t// in\n    tag_172:\n        /* \"#utility.yul\":2455:2543   */\n      swap2\n      pop\n        /* \"#utility.yul\":2271:2549   */\n      pop\n        /* \"#utility.yul\":2209:2549   */\n      swap3\n      swap2\n      pop\n      pop\n      jump\t// out\n        /* \"#utility.yul\":2555:2632   */\n    tag_99:\n        /* \"#utility.yul\":2592:2599   */\n      0x00\n        /* \"#utility.yul\":2621:2626   */\n      dup2\n        /* \"#utility.yul\":2610:2626   */\n      swap1\n      pop\n        /* \"#utility.yul\":2555:2632   */\n      swap2\n      swap1\n      pop\n      jump\t// out\n        /* \"#utility.yul\":2638:2760   */\n    tag_100:\n        /* \"#utility.yul\":2711:2735   */\n      tag_175\n        /* \"#utility.yul\":2729:2734   */\n      dup2\n        /* \"#utility.yul\":2711:2735   */\n      tag_99\n      jump\t// in\n    tag_175:\n        /* \"#utility.yul\":2704:2709   */\n      dup2\n        /* \"#utility.yul\":2701:2736   */\n      eq\n        /* \"#utility.yul\":2691:2754   */\n      tag_176\n      jumpi\n        /* \"#utility.yul\":2750:2751   */\n      0x00\n        /* \"#utility.yul\":2747:2748   */\n      dup1\n        /* \"#utility.yul\":2740:2752   */\n      revert\n        /* \"#utility.yul\":2691:2754   */\n    tag_176:\n        /* \"#utility.yul\":2638:2760   */\n      pop\n      jump\t// out\n        /* \"#utility.yul\":2766:2905   */\n    tag_101:\n        /* \"#utility.yul\":2812:2817   */\n      0x00\n        /* \"#utility.yul\":2850:2856   */\n      dup2\n        /* \"#utility.yul\":2837:2857   */\n      calldataload\n        /* \"#utility.yul\":2828:2857   */\n      swap1\n      pop\n        /* \"#utility.yul\":2866:2899   */\n      tag_178\n        /* \"#utility.yul\":2893:2898   */\n      dup2\n        /* \"#utility.yul\":2866:2899   */\n      tag_100\n      jump\t// in\n    tag_178:\n        /* \"#utility.yul\":2766:2905   */\n      swap3\n      swap2\n      pop\n      pop\n      jump\t// out\n        /* \"#utility.yul\":2911:3856   */\n    tag_11:\n        /* \"#utility.yul\":3007:3013   */\n      0x00\n        /* \"#utility.yul\":3015:3021   */\n      dup1\n        /* \"#utility.yul\":3023:3029   */\n      0x00\n        /* \"#utility.yul\":3031:3037   */\n      dup1\n        /* \"#utility.yul\":3080:3083   */\n      0x80\n        /* \"#utility.yul\":3068:3077   */\n      dup6\n        /* \"#utility.yul\":3059:3066   */\n      dup8\n        /* \"#utility.yul\":3055:3078   */\n      sub\n        /* \"#utility.yul\":3051:3084   */\n      slt\n        /* \"#utility.yul\":3048:3168   */\n      iszero\n      tag_180\n      jumpi\n        /* \"#utility.yul\":3087:3166   */\n      tag_181\n      tag_87\n      jump\t// in\n    tag_181:\n        /* \"#utility.yul\":3048:3168   */\n    tag_180:\n        /* \"#utility.yul\":3235:3236   */\n      0x00\n        /* \"#utility.yul\":3224:3233   */\n      dup6\n        /* \"#utility.yul\":3220:3237   */\n      add\n        /* \"#utility.yul\":3207:3238   */\n      calldataload\n        /* \"#utility.yul\":3265:3283   */\n      0xffffffffffffffff\n        /* \"#utility.yul\":3257:3263   */\n      dup2\n        /* \"#utility.yul\":3254:3284   */\n      gt\n        /* \"#utility.yul\":3251:3368   */\n      iszero\n      tag_182\n      jumpi\n        /* \"#utility.yul\":3287:3366   */\n      tag_183\n      tag_88\n      jump\t// in\n    tag_183:\n        /* \"#utility.yul\":3251:3368   */\n    tag_182:\n        /* \"#utility.yul\":3392:3455   */\n      tag_184\n        /* \"#utility.yul\":3447:3454   */\n      dup8\n        /* \"#utility.yul\":3438:3444   */\n      dup3\n        /* \"#utility.yul\":3427:3436   */\n      dup9\n        /* \"#utility.yul\":3423:3445   */\n      add\n        /* \"#utility.yul\":3392:3455   */\n      tag_98\n      jump\t// in\n    tag_184:\n        /* \"#utility.yul\":3382:3455   */\n      swap5\n      pop\n        /* \"#utility.yul\":3178:3465   */\n      pop\n        /* \"#utility.yul\":3504:3506   */\n      0x20\n        /* \"#utility.yul\":3530:3583   */\n      tag_185\n        /* \"#utility.yul\":3575:3582   */\n      dup8\n        /* \"#utility.yul\":3566:3572   */\n      dup3\n        /* \"#utility.yul\":3555:3564   */\n      dup9\n        /* \"#utility.yul\":3551:3573   */\n      add\n        /* \"#utility.yul\":3530:3583   */\n      tag_101\n      jump\t// in\n    tag_185:\n        /* \"#utility.yul\":3520:3583   */\n      swap4\n      pop\n        /* \"#utility.yul\":3475:3593   */\n      pop\n        /* \"#utility.yul\":3632:3634   */\n      0x40\n        /* \"#utility.yul\":3658:3711   */\n      tag_186\n        /* \"#utility.yul\":3703:3710   */\n      dup8\n        /* \"#utility.yul\":3694:3700   */\n      dup3\n        /* \"#utility.yul\":3683:3692   */\n      dup9\n        /* \"#utility.yul\":3679:3701   */\n      add\n        /* \"#utility.yul\":3658:3711   */\n      tag_101\n      jump\t// in\n    tag_186:\n        /* \"#utility.yul\":3648:3711   */\n      swap3\n      pop\n        /* \"#utility.yul\":3603:3721   */\n      pop\n        /* \"#utility.yul\":3760:3762   */\n      0x60\n        /* \"#utility.yul\":3786:3839   */\n      tag_187\n        /* \"#utility.yul\":3831:3838   */\n      dup8\n        /* \"#utility.yul\":3822:3828   */\n      dup3\n        /* \"#utility.yul\":3811:3820   */\n      dup9\n        /* \"#utility.yul\":3807:3829   */\n      add\n        /* \"#utility.yul\":3786:3839   */\n      tag_101\n      jump\t// in\n    tag_187:\n        /* \"#utility.yul\":3776:3839   */\n      swap2\n      pop\n        /* \"#utility.yul\":3731:3849   */\n      pop\n        /* \"#utility.yul\":2911:3856   */\n      swap3\n      swap6\n      swap2\n      swap5\n      pop\n      swap3\n      pop\n      jump\t// out\n        /* \"#utility.yul\":3862:4191   */\n    tag_16:\n        /* \"#utility.yul\":3921:3927   */\n      0x00\n        /* \"#utility.yul\":3970:3972   */\n      0x20\n        /* \"#utility.yul\":3958:3967   */\n      dup3\n        /* \"#utility.yul\":3949:3956   */\n      dup5\n        /* \"#utility.yul\":3945:3968   */\n      sub\n        /* \"#utility.yul\":3941:3973   */\n      slt\n        /* \"#utility.yul\":3938:4057   */\n      iszero\n      tag_189\n      jumpi\n        /* \"#utility.yul\":3976:4055   */\n      tag_190\n      tag_87\n      jump\t// in\n    tag_190:\n        /* \"#utility.yul\":3938:4057   */\n    tag_189:\n        /* \"#utility.yul\":4096:4097   */\n      0x00\n        /* \"#utility.yul\":4121:4174   */\n      tag_191\n        /* \"#utility.yul\":4166:4173   */\n      dup5\n        /* \"#utility.yul\":4157:4163   */\n      dup3\n        /* \"#utility.yul\":4146:4155   */\n      dup6\n        /* \"#utility.yul\":4142:4164   */\n      add\n        /* \"#utility.yul\":4121:4174   */\n      tag_101\n      jump\t// in\n    tag_191:\n        /* \"#utility.yul\":4111:4174   */\n      swap2\n      pop\n        /* \"#utility.yul\":4067:4184   */\n      pop\n        /* \"#utility.yul\":3862:4191   */\n      swap3\n      swap2\n      pop\n      pop\n      jump\t// out\n        /* \"#utility.yul\":4197:4323   */\n    tag_102:\n        /* \"#utility.yul\":4234:4241   */\n      0x00\n        /* \"#utility.yul\":4274:4316   */\n      0xffffffffffffffffffffffffffffffffffffffff\n        /* \"#utility.yul\":4267:4272   */\n      dup3\n        /* \"#utility.yul\":4263:4317   */\n      and\n        /* \"#utility.yul\":4252:4317   */\n      swap1\n      pop\n        /* \"#utility.yul\":4197:4323   */\n      swap2\n      swap1\n      pop\n      jump\t// out\n        /* \"#utility.yul\":4329:4425   */\n    tag_103:\n        /* \"#utility.yul\":4366:4373   */\n      0x00\n        /* \"#utility.yul\":4395:4419   */\n      tag_194\n        /* \"#utility.yul\":4413:4418   */\n      dup3\n        /* \"#utility.yul\":4395:4419   */\n      tag_102\n      jump\t// in\n    tag_194:\n        /* \"#utility.yul\":4384:4419   */\n      swap1\n      pop\n        /* \"#utility.yul\":4329:4425   */\n      swap2\n      swap1\n      pop\n      jump\t// out\n        /* \"#utility.yul\":4431:4549   */\n    tag_104:\n        /* \"#utility.yul\":4518:4542   */\n      tag_196\n        /* \"#utility.yul\":4536:4541   */\n      dup2\n        /* \"#utility.yul\":4518:4542   */\n      tag_103\n      jump\t// in\n    tag_196:\n        /* \"#utility.yul\":4513:4516   */\n      dup3\n        /* \"#utility.yul\":4506:4543   */\n      mstore\n        /* \"#utility.yul\":4431:4549   */\n      pop\n      pop\n      jump\t// out\n        /* \"#utility.yul\":4555:4654   */\n    tag_105:\n        /* \"#utility.yul\":4607:4613   */\n      0x00\n        /* \"#utility.yul\":4641:4646   */\n      dup2\n        /* \"#utility.yul\":4635:4647   */\n      mload\n        /* \"#utility.yul\":4625:4647   */\n      swap1\n      pop\n        /* \"#utility.yul\":4555:4654   */\n      swap2\n      swap1\n      pop\n      jump\t// out\n        /* \"#utility.yul\":4660:4829   */\n    tag_106:\n        /* \"#utility.yul\":4744:4755   */\n      0x00\n        /* \"#utility.yul\":4778:4784   */\n      dup3\n        /* \"#utility.yul\":4773:4776   */\n      dup3\n        /* \"#utility.yul\":4766:4785   */\n      mstore\n        /* \"#utility.yul\":4818:4822   */\n      0x20\n        /* \"#utility.yul\":4813:4816   */\n      dup3\n        /* \"#utility.yul\":4809:4823   */\n      add\n        /* \"#utility.yul\":4794:4823   */\n      swap1\n      pop\n        /* \"#utility.yul\":4660:4829   */\n      swap3\n      swap2\n      pop\n      pop\n      jump\t// out\n        /* \"#utility.yul\":4835:4974   */\n    tag_107:\n        /* \"#utility.yul\":4924:4930   */\n      dup3\n        /* \"#utility.yul\":4919:4922   */\n      dup2\n        /* \"#utility.yul\":4914:4917   */\n      dup4\n        /* \"#utility.yul\":4908:4931   */\n      mcopy\n        /* \"#utility.yul\":4965:4966   */\n      0x00\n        /* \"#utility.yul\":4956:4962   */\n      dup4\n        /* \"#utility.yul\":4951:4954   */\n      dup4\n        /* \"#utility.yul\":4947:4963   */\n      add\n        /* \"#utility.yul\":4940:4967   */\n      mstore\n        /* \"#utility.yul\":4835:4974   */\n      pop\n      pop\n      pop\n      jump\t// out\n        /* \"#utility.yul\":4980:5357   */\n    tag_108:\n        /* \"#utility.yul\":5068:5071   */\n      0x00\n        /* \"#utility.yul\":5096:5135   */\n      tag_201\n        /* \"#utility.yul\":5129:5134   */\n      dup3\n        /* \"#utility.yul\":5096:5135   */\n      tag_105\n      jump\t// in\n    tag_201:\n        /* \"#utility.yul\":5151:5222   */\n      tag_202\n        /* \"#utility.yul\":5215:5221   */\n      dup2\n        /* \"#utility.yul\":5210:5213   */\n      dup6\n        /* \"#utility.yul\":5151:5222   */\n      tag_106\n      jump\t// in\n    tag_202:\n        /* \"#utility.yul\":5144:5222   */\n      swap4\n      pop\n        /* \"#utility.yul\":5231:5296   */\n      tag_203\n        /* \"#utility.yul\":5289:5295   */\n      dup2\n        /* \"#utility.yul\":5284:5287   */\n      dup6\n        /* \"#utility.yul\":5277:5281   */\n      0x20\n        /* \"#utility.yul\":5270:5275   */\n      dup7\n        /* \"#utility.yul\":5266:5282   */\n      add\n        /* \"#utility.yul\":5231:5296   */\n      tag_107\n      jump\t// in\n    tag_203:\n        /* \"#utility.yul\":5321:5350   */\n      tag_204\n        /* \"#utility.yul\":5343:5349   */\n      dup2\n        /* \"#utility.yul\":5321:5350   */\n      tag_91\n      jump\t// in\n    tag_204:\n        /* \"#utility.yul\":5316:5319   */\n      dup5\n        /* \"#utility.yul\":5312:5351   */\n      add\n        /* \"#utility.yul\":5305:5351   */\n      swap2\n      pop\n        /* \"#utility.yul\":5072:5357   */\n      pop\n        /* \"#utility.yul\":4980:5357   */\n      swap3\n      swap2\n      pop\n      pop\n      jump\t// out\n        /* \"#utility.yul\":5363:5481   */\n    tag_109:\n        /* \"#utility.yul\":5450:5474   */\n      tag_206\n        /* \"#utility.yul\":5468:5473   */\n      dup2\n        /* \"#utility.yul\":5450:5474   */\n      tag_99\n      jump\t// in\n    tag_206:\n        /* \"#utility.yul\":5445:5448   */\n      dup3\n        /* \"#utility.yul\":5438:5475   */\n      mstore\n        /* \"#utility.yul\":5363:5481   */\n      pop\n      pop\n      jump\t// out\n        /* \"#utility.yul\":5487:6353   */\n    tag_19:\n        /* \"#utility.yul\":5740:5744   */\n      0x00\n        /* \"#utility.yul\":5778:5781   */\n      0xc0\n        /* \"#utility.yul\":5767:5776   */\n      dup3\n        /* \"#utility.yul\":5763:5782   */\n      add\n        /* \"#utility.yul\":5755:5782   */\n      swap1\n      pop\n        /* \"#utility.yul\":5792:5863   */\n      tag_208\n        /* \"#utility.yul\":5860:5861   */\n      0x00\n        /* \"#utility.yul\":5849:5858   */\n      dup4\n        /* \"#utility.yul\":5845:5862   */\n      add\n        /* \"#utility.yul\":5836:5842   */\n      dup10\n        /* \"#utility.yul\":5792:5863   */\n      tag_104\n      jump\t// in\n    tag_208:\n        /* \"#utility.yul\":5910:5919   */\n      dup2\n        /* \"#utility.yul\":5904:5908   */\n      dup2\n        /* \"#utility.yul\":5900:5920   */\n      sub\n        /* \"#utility.yul\":5895:5897   */\n      0x20\n        /* \"#utility.yul\":5884:5893   */\n      dup4\n        /* \"#utility.yul\":5880:5898   */\n      add\n        /* \"#utility.yul\":5873:5921   */\n      mstore\n        /* \"#utility.yul\":5938:6016   */\n      tag_209\n        /* \"#utility.yul\":6011:6015   */\n      dup2\n        /* \"#utility.yul\":6002:6008   */\n      dup9\n        /* \"#utility.yul\":5938:6016   */\n      tag_108\n      jump\t// in\n    tag_209:\n        /* \"#utility.yul\":5930:6016   */\n      swap1\n      pop\n        /* \"#utility.yul\":6026:6098   */\n      tag_210\n        /* \"#utility.yul\":6094:6096   */\n      0x40\n        /* \"#utility.yul\":6083:6092   */\n      dup4\n        /* \"#utility.yul\":6079:6097   */\n      add\n        /* \"#utility.yul\":6070:6076   */\n      dup8\n        /* \"#utility.yul\":6026:6098   */\n      tag_109\n      jump\t// in\n    tag_210:\n        /* \"#utility.yul\":6108:6180   */\n      tag_211\n        /* \"#utility.yul\":6176:6178   */\n      0x60\n        /* \"#utility.yul\":6165:6174   */\n      dup4\n        /* \"#utility.yul\":6161:6179   */\n      add\n        /* \"#utility.yul\":6152:6158   */\n      dup7\n        /* \"#utility.yul\":6108:6180   */\n      tag_109\n      jump\t// in\n    tag_211:\n        /* \"#utility.yul\":6190:6263   */\n      tag_212\n        /* \"#utility.yul\":6258:6261   */\n      0x80\n        /* \"#utility.yul\":6247:6256   */\n      dup4\n        /* \"#utility.yul\":6243:6262   */\n      add\n        /* \"#utility.yul\":6234:6240   */\n      dup6\n        /* \"#utility.yul\":6190:6263   */\n      tag_109\n      jump\t// in\n    tag_212:\n        /* \"#utility.yul\":6273:6346   */\n      tag_213\n        /* \"#utility.yul\":6341:6344   */\n      0xa0\n        /* \"#utility.yul\":6330:6339   */\n      dup4\n        /* \"#utility.yul\":6326:6345   */\n      add\n        /* \"#utility.yul\":6317:6323   */\n      dup5\n        /* \"#utility.yul\":6273:6346   */\n      tag_109\n      jump\t// in\n    tag_213:\n        /* \"#utility.yul\":5487:6353   */\n      swap8\n      swap7\n      pop\n      pop\n      pop\n      pop\n      pop\n      pop\n      pop\n      jump\t// out\n        /* \"#utility.yul\":6359:6833   */\n    tag_22:\n        /* \"#utility.yul\":6427:6433   */\n      0x00\n        /* \"#utility.yul\":6435:6441   */\n      dup1\n        /* \"#utility.yul\":6484:6486   */\n      0x40\n        /* \"#utility.yul\":6472:6481   */\n      dup4\n        /* \"#utility.yul\":6463:6470   */\n      dup6\n        /* \"#utility.yul\":6459:6482   */\n      sub\n        /* \"#utility.yul\":6455:6487   */\n      slt\n        /* \"#utility.yul\":6452:6571   */\n      iszero\n      tag_215\n      jumpi\n        /* \"#utility.yul\":6490:6569   */\n      tag_216\n      tag_87\n      jump\t// in\n    tag_216:\n        /* \"#utility.yul\":6452:6571   */\n    tag_215:\n        /* \"#utility.yul\":6610:6611   */\n      0x00\n        /* \"#utility.yul\":6635:6688   */\n      tag_217\n        /* \"#utility.yul\":6680:6687   */\n      dup6\n        /* \"#utility.yul\":6671:6677   */\n      dup3\n        /* \"#utility.yul\":6660:6669   */\n      dup7\n        /* \"#utility.yul\":6656:6678   */\n      add\n        /* \"#utility.yul\":6635:6688   */\n      tag_101\n      jump\t// in\n    tag_217:\n        /* \"#utility.yul\":6625:6688   */\n      swap3\n      pop\n        /* \"#utility.yul\":6581:6698   */\n      pop\n        /* \"#utility.yul\":6737:6739   */\n      0x20\n        /* \"#utility.yul\":6763:6816   */\n      tag_218\n        /* \"#utility.yul\":6808:6815   */\n      dup6\n        /* \"#utility.yul\":6799:6805   */\n      dup3\n        /* \"#utility.yul\":6788:6797   */\n      dup7\n        /* \"#utility.yul\":6784:6806   */\n      add\n        /* \"#utility.yul\":6763:6816   */\n      tag_101\n      jump\t// in\n    tag_218:\n        /* \"#utility.yul\":6753:6816   */\n      swap2\n      pop\n        /* \"#utility.yul\":6708:6826   */\n      pop\n        /* \"#utility.yul\":6359:6833   */\n      swap3\n      pop\n      swap3\n      swap1\n      pop\n      jump\t// out\n        /* \"#utility.yul\":6839:7061   */\n    tag_28:\n        /* \"#utility.yul\":6932:6936   */\n      0x00\n        /* \"#utility.yul\":6970:6972   */\n      0x20\n        /* \"#utility.yul\":6959:6968   */\n      dup3\n        /* \"#utility.yul\":6955:6973   */\n      add\n        /* \"#utility.yul\":6947:6973   */\n      swap1\n      pop\n        /* \"#utility.yul\":6983:7054   */\n      tag_220\n        /* \"#utility.yul\":7051:7052   */\n      0x00\n        /* \"#utility.yul\":7040:7049   */\n      dup4\n        /* \"#utility.yul\":7036:7053   */\n      add\n        /* \"#utility.yul\":7027:7033   */\n      dup5\n        /* \"#utility.yul\":6983:7054   */\n      tag_109\n      jump\t// in\n    tag_220:\n        /* \"#utility.yul\":6839:7061   */\n      swap3\n      swap2\n      pop\n      pop\n      jump\t// out\n        /* \"#utility.yul\":7067:7189   */\n    tag_110:\n        /* \"#utility.yul\":7140:7164   */\n      tag_222\n        /* \"#utility.yul\":7158:7163   */\n      dup2\n        /* \"#utility.yul\":7140:7164   */\n      tag_103\n      jump\t// in\n    tag_222:\n        /* \"#utility.yul\":7133:7138   */\n      dup2\n        /* \"#utility.yul\":7130:7165   */\n      eq\n        /* \"#utility.yul\":7120:7183   */\n      tag_223\n      jumpi\n        /* \"#utility.yul\":7179:7180   */\n      0x00\n        /* \"#utility.yul\":7176:7177   */\n      dup1\n        /* \"#utility.yul\":7169:7181   */\n      revert\n        /* \"#utility.yul\":7120:7183   */\n    tag_223:\n        /* \"#utility.yul\":7067:7189   */\n      pop\n      jump\t// out\n        /* \"#utility.yul\":7195:7334   */\n    tag_111:\n        /* \"#utility.yul\":7241:7246   */\n      0x00\n        /* \"#utility.yul\":7279:7285   */\n      dup2\n        /* \"#utility.yul\":7266:7286   */\n      calldataload\n        /* \"#utility.yul\":7257:7286   */\n      swap1\n      pop\n        /* \"#utility.yul\":7295:7328   */\n      tag_225\n        /* \"#utility.yul\":7322:7327   */\n      dup2\n        /* \"#utility.yul\":7295:7328   */\n      tag_110\n      jump\t// in\n    tag_225:\n        /* \"#utility.yul\":7195:7334   */\n      swap3\n      swap2\n      pop\n      pop\n      jump\t// out\n        /* \"#utility.yul\":7340:7814   */\n    tag_32:\n        /* \"#utility.yul\":7408:7414   */\n      0x00\n        /* \"#utility.yul\":7416:7422   */\n      dup1\n        /* \"#utility.yul\":7465:7467   */\n      0x40\n        /* \"#utility.yul\":7453:7462   */\n      dup4\n        /* \"#utility.yul\":7444:7451   */\n      dup6\n        /* \"#utility.yul\":7440:7463   */\n      sub\n        /* \"#utility.yul\":7436:7468   */\n      slt\n        /* \"#utility.yul\":7433:7552   */\n      iszero\n      tag_227\n      jumpi\n        /* \"#utility.yul\":7471:7550   */\n      tag_228\n      tag_87\n      jump\t// in\n    tag_228:\n        /* \"#utility.yul\":7433:7552   */\n    tag_227:\n        /* \"#utility.yul\":7591:7592   */\n      0x00\n        /* \"#utility.yul\":7616:7669   */\n      tag_229\n        /* \"#utility.yul\":7661:7668   */\n      dup6\n        /* \"#utility.yul\":7652:7658   */\n      dup3\n        /* \"#utility.yul\":7641:7650   */\n      dup7\n        /* \"#utility.yul\":7637:7659   */\n      add\n        /* \"#utility.yul\":7616:7669   */\n      tag_111\n      jump\t// in\n    tag_229:\n        /* \"#utility.yul\":7606:7669   */\n      swap3\n      pop\n        /* \"#utility.yul\":7562:7679   */\n      pop\n        /* \"#utility.yul\":7718:7720   */\n      0x20\n        /* \"#utility.yul\":7744:7797   */\n      tag_230\n        /* \"#utility.yul\":7789:7796   */\n      dup6\n        /* \"#utility.yul\":7780:7786   */\n      dup3\n        /* \"#utility.yul\":7769:7778   */\n      dup7\n        /* \"#utility.yul\":7765:7787   */\n      add\n        /* \"#utility.yul\":7744:7797   */\n      tag_101\n      jump\t// in\n    tag_230:\n        /* \"#utility.yul\":7734:7797   */\n      swap2\n      pop\n        /* \"#utility.yul\":7689:7807   */\n      pop\n        /* \"#utility.yul\":7340:7814   */\n      swap3\n      pop\n      swap3\n      swap1\n      pop\n      jump\t// out\n        /* \"#utility.yul\":7820:8439   */\n    tag_38:\n        /* \"#utility.yul\":7897:7903   */\n      0x00\n        /* \"#utility.yul\":7905:7911   */\n      dup1\n        /* \"#utility.yul\":7913:7919   */\n      0x00\n        /* \"#utility.yul\":7962:7964   */\n      0x60\n        /* \"#utility.yul\":7950:7959   */\n      dup5\n        /* \"#utility.yul\":7941:7948   */\n      dup7\n        /* \"#utility.yul\":7937:7960   */\n      sub\n        /* \"#utility.yul\":7933:7965   */\n      slt\n        /* \"#utility.yul\":7930:8049   */\n      iszero\n      tag_232\n      jumpi\n        /* \"#utility.yul\":7968:8047   */\n      tag_233\n      tag_87\n      jump\t// in\n    tag_233:\n        /* \"#utility.yul\":7930:8049   */\n    tag_232:\n        /* \"#utility.yul\":8088:8089   */\n      0x00\n        /* \"#utility.yul\":8113:8166   */\n      tag_234\n        /* \"#utility.yul\":8158:8165   */\n      dup7\n        /* \"#utility.yul\":8149:8155   */\n      dup3\n        /* \"#utility.yul\":8138:8147   */\n      dup8\n        /* \"#utility.yul\":8134:8156   */\n      add\n        /* \"#utility.yul\":8113:8166   */\n      tag_101\n      jump\t// in\n    tag_234:\n        /* \"#utility.yul\":8103:8166   */\n      swap4\n      pop\n        /* \"#utility.yul\":8059:8176   */\n      pop\n        /* \"#utility.yul\":8215:8217   */\n      0x20\n        /* \"#utility.yul\":8241:8294   */\n      tag_235\n        /* \"#utility.yul\":8286:8293   */\n      dup7\n        /* \"#utility.yul\":8277:8283   */\n      dup3\n        /* \"#utility.yul\":8266:8275   */\n      dup8\n        /* \"#utility.yul\":8262:8284   */\n      add\n        /* \"#utility.yul\":8241:8294   */\n      tag_101\n      jump\t// in\n    tag_235:\n        /* \"#utility.yul\":8231:8294   */\n      swap3\n      pop\n        /* \"#utility.yul\":8186:8304   */\n      pop\n        /* \"#utility.yul\":8343:8345   */\n      0x40\n        /* \"#utility.yul\":8369:8422   */\n      tag_236\n        /* \"#utility.yul\":8414:8421   */\n      dup7\n        /* \"#utility.yul\":8405:8411   */\n      dup3\n        /* \"#utility.yul\":8394:8403   */\n      dup8\n        /* \"#utility.yul\":8390:8412   */\n      add\n        /* \"#utility.yul\":8369:8422   */\n      tag_111\n      jump\t// in\n    tag_236:\n        /* \"#utility.yul\":8359:8422   */\n      swap2\n      pop\n        /* \"#utility.yul\":8314:8432   */\n      pop\n        /* \"#utility.yul\":7820:8439   */\n      swap3\n      pop\n      swap3\n      pop\n      swap3\n      jump\t// out\n        /* \"#utility.yul\":8445:8670   */\n    tag_112:\n        /* \"#utility.yul\":8585:8619   */\n      0x596f752063616e206f7267616e697a65206576656e7420666f72206675747572\n        /* \"#utility.yul\":8581:8582   */\n      0x00\n        /* \"#utility.yul\":8573:8579   */\n      dup3\n        /* \"#utility.yul\":8569:8583   */\n      add\n        /* \"#utility.yul\":8562:8620   */\n      mstore\n        /* \"#utility.yul\":8654:8662   */\n      0x6520646174650000000000000000000000000000000000000000000000000000\n        /* \"#utility.yul\":8649:8651   */\n      0x20\n        /* \"#utility.yul\":8641:8647   */\n      dup3\n        /* \"#utility.yul\":8637:8652   */\n      add\n        /* \"#utility.yul\":8630:8663   */\n      mstore\n        /* \"#utility.yul\":8445:8670   */\n      pop\n      jump\t// out\n        /* \"#utility.yul\":8676:9042   */\n    tag_113:\n        /* \"#utility.yul\":8818:8821   */\n      0x00\n        /* \"#utility.yul\":8839:8906   */\n      tag_239\n        /* \"#utility.yul\":8903:8905   */\n      0x26\n        /* \"#utility.yul\":8898:8901   */\n      dup4\n        /* \"#utility.yul\":8839:8906   */\n      tag_106\n      jump\t// in\n    tag_239:\n        /* \"#utility.yul\":8832:8906   */\n      swap2\n      pop\n        /* \"#utility.yul\":8915:9008   */\n      tag_240\n        /* \"#utility.yul\":9004:9007   */\n      dup3\n        /* \"#utility.yul\":8915:9008   */\n      tag_112\n      jump\t// in\n    tag_240:\n        /* \"#utility.yul\":9033:9035   */\n      0x40\n        /* \"#utility.yul\":9028:9031   */\n      dup3\n        /* \"#utility.yul\":9024:9036   */\n      add\n        /* \"#utility.yul\":9017:9036   */\n      swap1\n      pop\n        /* \"#utility.yul\":8676:9042   */\n      swap2\n      swap1\n      pop\n      jump\t// out\n        /* \"#utility.yul\":9048:9467   */\n    tag_43:\n        /* \"#utility.yul\":9214:9218   */\n      0x00\n        /* \"#utility.yul\":9252:9254   */\n      0x20\n        /* \"#utility.yul\":9241:9250   */\n      dup3\n        /* \"#utility.yul\":9237:9255   */\n      add\n        /* \"#utility.yul\":9229:9255   */\n      swap1\n      pop\n        /* \"#utility.yul\":9301:9310   */\n      dup2\n        /* \"#utility.yul\":9295:9299   */\n      dup2\n        /* \"#utility.yul\":9291:9311   */\n      sub\n        /* \"#utility.yul\":9287:9288   */\n      0x00\n        /* \"#utility.yul\":9276:9285   */\n      dup4\n        /* \"#utility.yul\":9272:9289   */\n      add\n        /* \"#utility.yul\":9265:9312   */\n      mstore\n        /* \"#utility.yul\":9329:9460   */\n      tag_242\n        /* \"#utility.yul\":9455:9459   */\n      dup2\n        /* \"#utility.yul\":9329:9460   */\n      tag_113\n      jump\t// in\n    tag_242:\n        /* \"#utility.yul\":9321:9460   */\n      swap1\n      pop\n        /* \"#utility.yul\":9048:9467   */\n      swap2\n      swap1\n      pop\n      jump\t// out\n        /* \"#utility.yul\":9473:9722   */\n    tag_114:\n        /* \"#utility.yul\":9613:9647   */\n      0x596f752063616e206f7267616e697a65206576656e74206f6e6c792020696620\n        /* \"#utility.yul\":9609:9610   */\n      0x00\n        /* \"#utility.yul\":9601:9607   */\n      dup3\n        /* \"#utility.yul\":9597:9611   */\n      add\n        /* \"#utility.yul\":9590:9648   */\n      mstore\n        /* \"#utility.yul\":9682:9714   */\n      0x796f7520637265617465206d6f7265207468616e2030207469636b6574730000\n        /* \"#utility.yul\":9677:9679   */\n      0x20\n        /* \"#utility.yul\":9669:9675   */\n      dup3\n        /* \"#utility.yul\":9665:9680   */\n      add\n        /* \"#utility.yul\":9658:9715   */\n      mstore\n        /* \"#utility.yul\":9473:9722   */\n      pop\n      jump\t// out\n        /* \"#utility.yul\":9728:10094   */\n    tag_115:\n        /* \"#utility.yul\":9870:9873   */\n      0x00\n        /* \"#utility.yul\":9891:9958   */\n      tag_245\n        /* \"#utility.yul\":9955:9957   */\n      0x3e\n        /* \"#utility.yul\":9950:9953   */\n      dup4\n        /* \"#utility.yul\":9891:9958   */\n      tag_106\n      jump\t// in\n    tag_245:\n        /* \"#utility.yul\":9884:9958   */\n      swap2\n      pop\n        /* \"#utility.yul\":9967:10060   */\n      tag_246\n        /* \"#utility.yul\":10056:10059   */\n      dup3\n        /* \"#utility.yul\":9967:10060   */\n      tag_114\n      jump\t// in\n    tag_246:\n        /* \"#utility.yul\":10085:10087   */\n      0x40\n        /* \"#utility.yul\":10080:10083   */\n      dup3\n        /* \"#utility.yul\":10076:10088   */\n      add\n        /* \"#utility.yul\":10069:10088   */\n      swap1\n      pop\n        /* \"#utility.yul\":9728:10094   */\n      swap2\n      swap1\n      pop\n      jump\t// out\n        /* \"#utility.yul\":10100:10519   */\n    tag_46:\n        /* \"#utility.yul\":10266:10270   */\n      0x00\n        /* \"#utility.yul\":10304:10306   */\n      0x20\n        /* \"#utility.yul\":10293:10302   */\n      dup3\n        /* \"#utility.yul\":10289:10307   */\n      add\n        /* \"#utility.yul\":10281:10307   */\n      swap1\n      pop\n        /* \"#utility.yul\":10353:10362   */\n      dup2\n        /* \"#utility.yul\":10347:10351   */\n      dup2\n        /* \"#utility.yul\":10343:10363   */\n      sub\n        /* \"#utility.yul\":10339:10340   */\n      0x00\n        /* \"#utility.yul\":10328:10337   */\n      dup4\n        /* \"#utility.yul\":10324:10341   */\n      add\n        /* \"#utility.yul\":10317:10364   */\n      mstore\n        /* \"#utility.yul\":10381:10512   */\n      tag_248\n        /* \"#utility.yul\":10507:10511   */\n      dup2\n        /* \"#utility.yul\":10381:10512   */\n      tag_115\n      jump\t// in\n    tag_248:\n        /* \"#utility.yul\":10373:10512   */\n      swap1\n      pop\n        /* \"#utility.yul\":10100:10519   */\n      swap2\n      swap1\n      pop\n      jump\t// out\n        /* \"#utility.yul\":10525:10705   */\n    tag_116:\n        /* \"#utility.yul\":10573:10650   */\n      0x4e487b7100000000000000000000000000000000000000000000000000000000\n        /* \"#utility.yul\":10570:10571   */\n      0x00\n        /* \"#utility.yul\":10563:10651   */\n      mstore\n        /* \"#utility.yul\":10670:10674   */\n      0x22\n        /* \"#utility.yul\":10667:10668   */\n      0x04\n        /* \"#utility.yul\":10660:10675   */\n      mstore\n        /* \"#utility.yul\":10694:10698   */\n      0x24\n        /* \"#utility.yul\":10691:10692   */\n      0x00\n        /* \"#utility.yul\":10684:10699   */\n      revert\n        /* \"#utility.yul\":10711:11031   */\n    tag_52:\n        /* \"#utility.yul\":10755:10761   */\n      0x00\n        /* \"#utility.yul\":10792:10793   */\n      0x02\n        /* \"#utility.yul\":10786:10790   */\n      dup3\n        /* \"#utility.yul\":10782:10794   */\n      div\n        /* \"#utility.yul\":10772:10794   */\n      swap1\n      pop\n        /* \"#utility.yul\":10839:10840   */\n      0x01\n        /* \"#utility.yul\":10833:10837   */\n      dup3\n        /* \"#utility.yul\":10829:10841   */\n      and\n        /* \"#utility.yul\":10860:10878   */\n      dup1\n        /* \"#utility.yul\":10850:10931   */\n      tag_251\n      jumpi\n        /* \"#utility.yul\":10916:10920   */\n      0x7f\n        /* \"#utility.yul\":10908:10914   */\n      dup3\n        /* \"#utility.yul\":10904:10921   */\n      and\n        /* \"#utility.yul\":10894:10921   */\n      swap2\n      pop\n        /* \"#utility.yul\":10850:10931   */\n    tag_251:\n        /* \"#utility.yul\":10978:10980   */\n      0x20\n        /* \"#utility.yul\":10970:10976   */\n      dup3\n        /* \"#utility.yul\":10967:10981   */\n      lt\n        /* \"#utility.yul\":10947:10965   */\n      dup2\n        /* \"#utility.yul\":10944:10982   */\n      sub\n        /* \"#utility.yul\":10941:11025   */\n      tag_252\n      jumpi\n        /* \"#utility.yul\":10997:11015   */\n      tag_253\n      tag_116\n      jump\t// in\n    tag_253:\n        /* \"#utility.yul\":10941:11025   */\n    tag_252:\n        /* \"#utility.yul\":10762:11031   */\n      pop\n        /* \"#utility.yul\":10711:11031   */\n      swap2\n      swap1\n      pop\n      jump\t// out\n        /* \"#utility.yul\":11037:11178   */\n    tag_117:\n        /* \"#utility.yul\":11086:11090   */\n      0x00\n        /* \"#utility.yul\":11109:11112   */\n      dup2\n        /* \"#utility.yul\":11101:11112   */\n      swap1\n      pop\n        /* \"#utility.yul\":11132:11135   */\n      dup2\n        /* \"#utility.yul\":11129:11130   */\n      0x00\n        /* \"#utility.yul\":11122:11136   */\n      mstore\n        /* \"#utility.yul\":11166:11170   */\n      0x20\n        /* \"#utility.yul\":11163:11164   */\n      0x00\n        /* \"#utility.yul\":11153:11171   */\n      keccak256\n        /* \"#utility.yul\":11145:11171   */\n      swap1\n      pop\n        /* \"#utility.yul\":11037:11178   */\n      swap2\n      swap1\n      pop\n      jump\t// out\n        /* \"#utility.yul\":11184:11277   */\n    tag_118:\n        /* \"#utility.yul\":11221:11227   */\n      0x00\n        /* \"#utility.yul\":11268:11270   */\n      0x20\n        /* \"#utility.yul\":11263:11265   */\n      0x1f\n        /* \"#utility.yul\":11256:11261   */\n      dup4\n        /* \"#utility.yul\":11252:11266   */\n      add\n        /* \"#utility.yul\":11248:11271   */\n      div\n        /* \"#utility.yul\":11238:11271   */\n      swap1\n      pop\n        /* \"#utility.yul\":11184:11277   */\n      swap2\n      swap1\n      pop\n      jump\t// out\n        /* \"#utility.yul\":11283:11390   */\n    tag_119:\n        /* \"#utility.yul\":11327:11335   */\n      0x00\n        /* \"#utility.yul\":11377:11382   */\n      dup3\n        /* \"#utility.yul\":11371:11375   */\n      dup3\n        /* \"#utility.yul\":11367:11383   */\n      shl\n        /* \"#utility.yul\":11346:11383   */\n      swap1\n      pop\n        /* \"#utility.yul\":11283:11390   */\n      swap3\n      swap2\n      pop\n      pop\n      jump\t// out\n        /* \"#utility.yul\":11396:11789   */\n    tag_120:\n        /* \"#utility.yul\":11465:11471   */\n      0x00\n        /* \"#utility.yul\":11515:11516   */\n      0x08\n        /* \"#utility.yul\":11503:11513   */\n      dup4\n        /* \"#utility.yul\":11499:11517   */\n      mul\n        /* \"#utility.yul\":11538:11635   */\n      tag_258\n        /* \"#utility.yul\":11568:11634   */\n      0xffffffffffffffffffffffffffffffffffffffffffffffffffffffffffffffff\n        /* \"#utility.yul\":11557:11566   */\n      dup3\n        /* \"#utility.yul\":11538:11635   */\n      tag_119\n      jump\t// in\n    tag_258:\n        /* \"#utility.yul\":11656:11695   */\n      tag_259\n        /* \"#utility.yul\":11686:11694   */\n      dup7\n        /* \"#utility.yul\":11675:11684   */\n      dup4\n        /* \"#utility.yul\":11656:11695   */\n      tag_119\n      jump\t// in\n    tag_259:\n        /* \"#utility.yul\":11644:11695   */\n      swap6\n      pop\n        /* \"#utility.yul\":11728:11732   */\n      dup1\n        /* \"#utility.yul\":11724:11733   */\n      not\n        /* \"#utility.yul\":11717:11722   */\n      dup5\n        /* \"#utility.yul\":11713:11734   */\n      and\n        /* \"#utility.yul\":11704:11734   */\n      swap4\n      pop\n        /* \"#utility.yul\":11777:11781   */\n      dup1\n        /* \"#utility.yul\":11767:11775   */\n      dup7\n        /* \"#utility.yul\":11763:11782   */\n      and\n        /* \"#utility.yul\":11756:11761   */\n      dup5\n        /* \"#utility.yul\":11753:11783   */\n      or\n        /* \"#utility.yul\":11743:11783   */\n      swap3\n      pop\n        /* \"#utility.yul\":11472:11789   */\n      pop\n      pop\n        /* \"#utility.yul\":11396:11789   */\n      swap4\n      swap3\n      pop\n      pop\n      pop\n      jump\t// out\n        /* \"#utility.yul\":11795:11855   */\n    tag_121:\n        /* \"#utility.yul\":11823:11826   */\n      0x00\n        /* \"#utility.yul\":11844:11849   */\n      dup2\n        /* \"#utility.yul\":11837:11849   */\n      swap1\n      pop\n        /* \"#utility.yul\":11795:11855   */\n      swap2\n      swap1\n      pop\n      jump\t// out\n        /* \"#utility.yul\":11861:12003   */\n    tag_122:\n        /* \"#utility.yul\":11911:11920   */\n      0x00\n        /* \"#utility.yul\":11944:11997   */\n      tag_262\n        /* \"#utility.yul\":11962:11996   */\n      tag_263\n        /* \"#utility.yul\":11971:11995   */\n      tag_264\n        /* \"#utility.yul\":11989:11994   */\n      dup5\n        /* \"#utility.yul\":11971:11995   */\n      tag_99\n      jump\t// in\n    tag_264:\n        /* \"#utility.yul\":11962:11996   */\n      tag_121\n      jump\t// in\n    tag_263:\n        /* \"#utility.yul\":11944:11997   */\n      tag_99\n      jump\t// in\n    tag_262:\n        /* \"#utility.yul\":11931:11997   */\n      swap1\n      pop\n        /* \"#utility.yul\":11861:12003   */\n      swap2\n      swap1\n      pop\n      jump\t// out\n        /* \"#utility.yul\":12009:12084   */\n    tag_123:\n        /* \"#utility.yul\":12052:12055   */\n      0x00\n        /* \"#utility.yul\":12073:12078   */\n      dup2\n        /* \"#utility.yul\":12066:12078   */\n      swap1\n      pop\n        /* \"#utility.yul\":12009:12084   */\n      swap2\n      swap1\n      pop\n      jump\t// out\n        /* \"#utility.yul\":12090:12359   */\n    tag_124:\n        /* \"#utility.yul\":12200:12239   */\n      tag_267\n        /* \"#utility.yul\":12231:12238   */\n      dup4\n        /* \"#utility.yul\":12200:12239   */\n      tag_122\n      jump\t// in\n    tag_267:\n        /* \"#utility.yul\":12261:12352   */\n      tag_268\n        /* \"#utility.yul\":12310:12351   */\n      tag_269\n        /* \"#utility.yul\":12334:12350   */\n      dup3\n        /* \"#utility.yul\":12310:12351   */\n      tag_123\n      jump\t// in\n    tag_269:\n        /* \"#utility.yul\":12302:12308   */\n      dup5\n        /* \"#utility.yul\":12295:12299   */\n      dup5\n        /* \"#utility.yul\":12289:12300   */\n      sload\n        /* \"#utility.yul\":12261:12352   */\n      tag_120\n      jump\t// in\n    tag_268:\n        /* \"#utility.yul\":12255:12259   */\n      dup3\n        /* \"#utility.yul\":12248:12353   */\n      sstore\n        /* \"#utility.yul\":12166:12359   */\n      pop\n        /* \"#utility.yul\":12090:12359   */\n      pop\n      pop\n      pop\n      jump\t// out\n        /* \"#utility.yul\":12365:12438   */\n    tag_125:\n        /* \"#utility.yul\":12410:12413   */\n      0x00\n        /* \"#utility.yul\":12365:12438   */\n      swap1\n      jump\t// out\n        /* \"#utility.yul\":12444:12633   */\n    tag_126:\n        /* \"#utility.yul\":12521:12553   */\n      tag_272\n      tag_125\n      jump\t// in\n    tag_272:\n        /* \"#utility.yul\":12562:12627   */\n      tag_273\n        /* \"#utility.yul\":12620:12626   */\n      dup2\n        /* \"#utility.yul\":12612:12618   */\n      dup5\n        /* \"#utility.yul\":12606:12610   */\n      dup5\n        /* \"#utility.yul\":12562:12627   */\n      tag_124\n      jump\t// in\n    tag_273:\n        /* \"#utility.yul\":12497:12633   */\n      pop\n        /* \"#utility.yul\":12444:12633   */\n      pop\n      pop\n      jump\t// out\n        /* \"#utility.yul\":12639:12825   */\n    tag_127:\n        /* \"#utility.yul\":12699:12819   */\n    tag_275:\n        /* \"#utility.yul\":12716:12719   */\n      dup2\n        /* \"#utility.yul\":12709:12714   */\n      dup2\n        /* \"#utility.yul\":12706:12720   */\n      lt\n        /* \"#utility.yul\":12699:12819   */\n      iszero\n      tag_277\n      jumpi\n        /* \"#utility.yul\":12770:12809   */\n      tag_278\n        /* \"#utility.yul\":12807:12808   */\n      0x00\n        /* \"#utility.yul\":12800:12805   */\n      dup3\n        /* \"#utility.yul\":12770:12809   */\n      tag_126\n      jump\t// in\n    tag_278:\n        /* \"#utility.yul\":12743:12744   */\n      0x01\n        /* \"#utility.yul\":12736:12741   */\n      dup2\n        /* \"#utility.yul\":12732:12745   */\n      add\n        /* \"#utility.yul\":12723:12745   */\n      swap1\n      pop\n        /* \"#utility.yul\":12699:12819   */\n      jump(tag_275)\n    tag_277:\n        /* \"#utility.yul\":12639:12825   */\n      pop\n      pop\n      jump\t// out\n        /* \"#utility.yul\":12831:13374   */\n    tag_128:\n        /* \"#utility.yul\":12932:12934   */\n      0x1f\n        /* \"#utility.yul\":12927:12930   */\n      dup3\n        /* \"#utility.yul\":12924:12935   */\n      gt\n        /* \"#utility.yul\":12921:13367   */\n      iszero\n      tag_280\n      jumpi\n        /* \"#utility.yul\":12966:13004   */\n      tag_281\n        /* \"#utility.yul\":12998:13003   */\n      dup2\n        /* \"#utility.yul\":12966:13004   */\n      tag_117\n      jump\t// in\n    tag_281:\n        /* \"#utility.yul\":13050:13079   */\n      tag_282\n        /* \"#utility.yul\":13068:13078   */\n      dup5\n        /* \"#utility.yul\":13050:13079   */\n      tag_118\n      jump\t// in\n    tag_282:\n        /* \"#utility.yul\":13040:13048   */\n      dup2\n        /* \"#utility.yul\":13036:13080   */\n      add\n        /* \"#utility.yul\":13233:13235   */\n      0x20\n        /* \"#utility.yul\":13221:13231   */\n      dup6\n        /* \"#utility.yul\":13218:13236   */\n      lt\n        /* \"#utility.yul\":13215:13264   */\n      iszero\n      tag_283\n      jumpi\n        /* \"#utility.yul\":13254:13262   */\n      dup2\n        /* \"#utility.yul\":13239:13262   */\n      swap1\n      pop\n        /* \"#utility.yul\":13215:13264   */\n    tag_283:\n        /* \"#utility.yul\":13277:13357   */\n      tag_284\n        /* \"#utility.yul\":13333:13355   */\n      tag_285\n        /* \"#utility.yul\":13351:13354   */\n      dup6\n        /* \"#utility.yul\":13333:13355   */\n      tag_118\n      jump\t// in\n    tag_285:\n        /* \"#utility.yul\":13323:13331   */\n      dup4\n        /* \"#utility.yul\":13319:13356   */\n      add\n        /* \"#utility.yul\":13306:13317   */\n      dup3\n        /* \"#utility.yul\":13277:13357   */\n      tag_127\n      jump\t// in\n    tag_284:\n        /* \"#utility.yul\":12936:13367   */\n      pop\n      pop\n        /* \"#utility.yul\":12921:13367   */\n    tag_280:\n        /* \"#utility.yul\":12831:13374   */\n      pop\n      pop\n      pop\n      jump\t// out\n        /* \"#utility.yul\":13380:13497   */\n    tag_129:\n        /* \"#utility.yul\":13434:13442   */\n      0x00\n        /* \"#utility.yul\":13484:13489   */\n      dup3\n        /* \"#utility.yul\":13478:13482   */\n      dup3\n        /* \"#utility.yul\":13474:13490   */\n      shr\n        /* \"#utility.yul\":13453:13490   */\n      swap1\n      pop\n        /* \"#utility.yul\":13380:13497   */\n      swap3\n      swap2\n      pop\n      pop\n      jump\t// out\n        /* \"#utility.yul\":13503:13672   */\n    tag_130:\n        /* \"#utility.yul\":13547:13553   */\n      0x00\n        /* \"#utility.yul\":13580:13631   */\n      tag_288\n        /* \"#utility.yul\":13628:13629   */\n      0x00\n        /* \"#utility.yul\":13624:13630   */\n      not\n        /* \"#utility.yul\":13616:13621   */\n      dup5\n        /* \"#utility.yul\":13613:13614   */\n      0x08\n        /* \"#utility.yul\":13609:13622   */\n      mul\n        /* \"#utility.yul\":13580:13631   */\n      tag_129\n      jump\t// in\n    tag_288:\n        /* \"#utility.yul\":13576:13632   */\n      not\n        /* \"#utility.yul\":13661:13665   */\n      dup1\n        /* \"#utility.yul\":13655:13659   */\n      dup4\n        /* \"#utility.yul\":13651:13666   */\n      and\n        /* \"#utility.yul\":13641:13666   */\n      swap2\n      pop\n        /* \"#utility.yul\":13554:13672   */\n      pop\n        /* \"#utility.yul\":13503:13672   */\n      swap3\n      swap2\n      pop\n      pop\n      jump\t// out\n        /* \"#utility.yul\":13677:13972   */\n    tag_131:\n        /* \"#utility.yul\":13753:13757   */\n      0x00\n        /* \"#utility.yul\":13899:13928   */\n      tag_290\n        /* \"#utility.yul\":13924:13927   */\n      dup4\n        /* \"#utility.yul\":13918:13922   */\n      dup4\n        /* \"#utility.yul\":13899:13928   */\n      tag_130\n      jump\t// in\n    tag_290:\n        /* \"#utility.yul\":13891:13928   */\n      swap2\n      pop\n        /* \"#utility.yul\":13961:13964   */\n      dup3\n        /* \"#utility.yul\":13958:13959   */\n      0x02\n        /* \"#utility.yul\":13954:13965   */\n      mul\n        /* \"#utility.yul\":13948:13952   */\n      dup3\n        /* \"#utility.yul\":13945:13966   */\n      or\n        /* \"#utility.yul\":13937:13966   */\n      swap1\n      pop\n        /* \"#utility.yul\":13677:13972   */\n      swap3\n      swap2\n      pop\n      pop\n      jump\t// out\n        /* \"#utility.yul\":13977:15372   */\n    tag_48:\n        /* \"#utility.yul\":14094:14131   */\n      tag_292\n        /* \"#utility.yul\":14127:14130   */\n      dup3\n        /* \"#utility.yul\":14094:14131   */\n      tag_105\n      jump\t// in\n    tag_292:\n        /* \"#utility.yul\":14196:14214   */\n      0xffffffffffffffff\n        /* \"#utility.yul\":14188:14194   */\n      dup2\n        /* \"#utility.yul\":14185:14215   */\n      gt\n        /* \"#utility.yul\":14182:14238   */\n      iszero\n      tag_293\n      jumpi\n        /* \"#utility.yul\":14218:14236   */\n      tag_294\n      tag_92\n      jump\t// in\n    tag_294:\n        /* \"#utility.yul\":14182:14238   */\n    tag_293:\n        /* \"#utility.yul\":14262:14300   */\n      tag_295\n        /* \"#utility.yul\":14294:14298   */\n      dup3\n        /* \"#utility.yul\":14288:14299   */\n      sload\n        /* \"#utility.yul\":14262:14300   */\n      tag_52\n      jump\t// in\n    tag_295:\n        /* \"#utility.yul\":14347:14414   */\n      tag_296\n        /* \"#utility.yul\":14407:14413   */\n      dup3\n        /* \"#utility.yul\":14399:14405   */\n      dup3\n        /* \"#utility.yul\":14393:14397   */\n      dup6\n        /* \"#utility.yul\":14347:14414   */\n      tag_128\n      jump\t// in\n    tag_296:\n        /* \"#utility.yul\":14441:14442   */\n      0x00\n        /* \"#utility.yul\":14465:14469   */\n      0x20\n        /* \"#utility.yul\":14452:14469   */\n      swap1\n      pop\n        /* \"#utility.yul\":14497:14499   */\n      0x1f\n        /* \"#utility.yul\":14489:14495   */\n      dup4\n        /* \"#utility.yul\":14486:14500   */\n      gt\n        /* \"#utility.yul\":14514:14515   */\n      0x01\n        /* \"#utility.yul\":14509:15127   */\n      dup2\n      eq\n      tag_298\n      jumpi\n        /* \"#utility.yul\":15171:15172   */\n      0x00\n        /* \"#utility.yul\":15188:15194   */\n      dup5\n        /* \"#utility.yul\":15185:15262   */\n      iszero\n      tag_299\n      jumpi\n        /* \"#utility.yul\":15237:15246   */\n      dup3\n        /* \"#utility.yul\":15232:15235   */\n      dup8\n        /* \"#utility.yul\":15228:15247   */\n      add\n        /* \"#utility.yul\":15222:15248   */\n      mload\n        /* \"#utility.yul\":15213:15248   */\n      swap1\n      pop\n        /* \"#utility.yul\":15185:15262   */\n    tag_299:\n        /* \"#utility.yul\":15288:15355   */\n      tag_300\n        /* \"#utility.yul\":15348:15354   */\n      dup6\n        /* \"#utility.yul\":15341:15346   */\n      dup3\n        /* \"#utility.yul\":15288:15355   */\n      tag_131\n      jump\t// in\n    tag_300:\n        /* \"#utility.yul\":15282:15286   */\n      dup7\n        /* \"#utility.yul\":15275:15356   */\n      sstore\n        /* \"#utility.yul\":15144:15366   */\n      pop\n        /* \"#utility.yul\":14479:15366   */\n      jump(tag_297)\n        /* \"#utility.yul\":14509:15127   */\n    tag_298:\n        /* \"#utility.yul\":14561:14565   */\n      0x1f\n        /* \"#utility.yul\":14557:14566   */\n      not\n        /* \"#utility.yul\":14549:14555   */\n      dup5\n        /* \"#utility.yul\":14545:14567   */\n      and\n        /* \"#utility.yul\":14595:14632   */\n      tag_301\n        /* \"#utility.yul\":14627:14631   */\n      dup7\n        /* \"#utility.yul\":14595:14632   */\n      tag_117\n      jump\t// in\n    tag_301:\n        /* \"#utility.yul\":14654:14655   */\n      0x00\n        /* \"#utility.yul\":14668:14876   */\n    tag_302:\n        /* \"#utility.yul\":14682:14689   */\n      dup3\n        /* \"#utility.yul\":14679:14680   */\n      dup2\n        /* \"#utility.yul\":14676:14690   */\n      lt\n        /* \"#utility.yul\":14668:14876   */\n      iszero\n      tag_304\n      jumpi\n        /* \"#utility.yul\":14761:14770   */\n      dup5\n        /* \"#utility.yul\":14756:14759   */\n      dup10\n        /* \"#utility.yul\":14752:14771   */\n      add\n        /* \"#utility.yul\":14746:14772   */\n      mload\n        /* \"#utility.yul\":14738:14744   */\n      dup3\n        /* \"#utility.yul\":14731:14773   */\n      sstore\n        /* \"#utility.yul\":14812:14813   */\n      0x01\n        /* \"#utility.yul\":14804:14810   */\n      dup3\n        /* \"#utility.yul\":14800:14814   */\n      add\n        /* \"#utility.yul\":14790:14814   */\n      swap2\n      pop\n        /* \"#utility.yul\":14859:14861   */\n      0x20\n        /* \"#utility.yul\":14848:14857   */\n      dup6\n        /* \"#utility.yul\":14844:14862   */\n      add\n        /* \"#utility.yul\":14831:14862   */\n      swap5\n      pop\n        /* \"#utility.yul\":14705:14709   */\n      0x20\n        /* \"#utility.yul\":14702:14703   */\n      dup2\n        /* \"#utility.yul\":14698:14710   */\n      add\n        /* \"#utility.yul\":14693:14710   */\n      swap1\n      pop\n        /* \"#utility.yul\":14668:14876   */\n      jump(tag_302)\n    tag_304:\n        /* \"#utility.yul\":14904:14910   */\n      dup7\n        /* \"#utility.yul\":14895:14902   */\n      dup4\n        /* \"#utility.yul\":14892:14911   */\n      lt\n        /* \"#utility.yul\":14889:15068   */\n      iszero\n      tag_305\n      jumpi\n        /* \"#utility.yul\":14962:14971   */\n      dup5\n        /* \"#utility.yul\":14957:14960   */\n      dup10\n        /* \"#utility.yul\":14953:14972   */\n      add\n        /* \"#utility.yul\":14947:14973   */\n      mload\n        /* \"#utility.yul\":15005:15053   */\n      tag_306\n        /* \"#utility.yul\":15047:15051   */\n      0x1f\n        /* \"#utility.yul\":15039:15045   */\n      dup10\n        /* \"#utility.yul\":15035:15052   */\n      and\n        /* \"#utility.yul\":15024:15033   */\n      dup3\n        /* \"#utility.yul\":15005:15053   */\n      tag_130\n      jump\t// in\n    tag_306:\n        /* \"#utility.yul\":14997:15003   */\n      dup4\n        /* \"#utility.yul\":14990:15054   */\n      sstore\n        /* \"#utility.yul\":14912:15068   */\n      pop\n        /* \"#utility.yul\":14889:15068   */\n    tag_305:\n        /* \"#utility.yul\":15114:15115   */\n      0x01\n        /* \"#utility.yul\":15110:15111   */\n      0x02\n        /* \"#utility.yul\":15102:15108   */\n      dup9\n        /* \"#utility.yul\":15098:15112   */\n      mul\n        /* \"#utility.yul\":15094:15116   */\n      add\n        /* \"#utility.yul\":15088:15092   */\n      dup9\n        /* \"#utility.yul\":15081:15117   */\n      sstore\n        /* \"#utility.yul\":14516:15127   */\n      pop\n      pop\n      pop\n        /* \"#utility.yul\":14479:15366   */\n    tag_297:\n      pop\n        /* \"#utility.yul\":14069:15372   */\n      pop\n      pop\n      pop\n        /* \"#utility.yul\":13977:15372   */\n      pop\n      pop\n      jump\t// out\n        /* \"#utility.yul\":15378:15558   */\n    tag_132:\n        /* \"#utility.yul\":15426:15503   */\n      0x4e487b7100000000000000000000000000000000000000000000000000000000\n        /* \"#utility.yul\":15423:15424   */\n      0x00\n        /* \"#utility.yul\":15416:15504   */\n      mstore\n        /* \"#utility.yul\":15523:15527   */\n      0x11\n        /* \"#utility.yul\":15520:15521   */\n      0x04\n        /* \"#utility.yul\":15513:15528   */\n      mstore\n        /* \"#utility.yul\":15547:15551   */\n      0x24\n        /* \"#utility.yul\":15544:15545   */\n      0x00\n        /* \"#utility.yul\":15537:15552   */\n      revert\n        /* \"#utility.yul\":15564:15797   */\n    tag_50:\n        /* \"#utility.yul\":15603:15606   */\n      0x00\n        /* \"#utility.yul\":15626:15650   */\n      tag_309\n        /* \"#utility.yul\":15644:15649   */\n      dup3\n        /* \"#utility.yul\":15626:15650   */\n      tag_99\n      jump\t// in\n    tag_309:\n        /* \"#utility.yul\":15617:15650   */\n      swap2\n      pop\n        /* \"#utility.yul\":15672:15738   */\n      0xffffffffffffffffffffffffffffffffffffffffffffffffffffffffffffffff\n        /* \"#utility.yul\":15665:15670   */\n      dup3\n        /* \"#utility.yul\":15662:15739   */\n      sub\n        /* \"#utility.yul\":15659:15762   */\n      tag_310\n      jumpi\n        /* \"#utility.yul\":15742:15760   */\n      tag_311\n      tag_132\n      jump\t// in\n    tag_311:\n        /* \"#utility.yul\":15659:15762   */\n    tag_310:\n        /* \"#utility.yul\":15789:15790   */\n      0x01\n        /* \"#utility.yul\":15782:15787   */\n      dup3\n        /* \"#utility.yul\":15778:15791   */\n      add\n        /* \"#utility.yul\":15771:15791   */\n      swap1\n      pop\n        /* \"#utility.yul\":15564:15797   */\n      swap2\n      swap1\n      pop\n      jump\t// out\n        /* \"#utility.yul\":15803:15973   */\n    tag_133:\n        /* \"#utility.yul\":15943:15965   */\n      0x4576656e7420646f6573206e6f74206578697374000000000000000000000000\n        /* \"#utility.yul\":15939:15940   */\n      0x00\n        /* \"#utility.yul\":15931:15937   */\n      dup3\n        /* \"#utility.yul\":15927:15941   */\n      add\n        /* \"#utility.yul\":15920:15966   */\n      mstore\n        /* \"#utility.yul\":15803:15973   */\n      pop\n      jump\t// out\n        /* \"#utility.yul\":15979:16345   */\n    tag_134:\n        /* \"#utility.yul\":16121:16124   */\n      0x00\n        /* \"#utility.yul\":16142:16209   */\n      tag_314\n        /* \"#utility.yul\":16206:16208   */\n      0x14\n        /* \"#utility.yul\":16201:16204   */\n      dup4\n        /* \"#utility.yul\":16142:16209   */\n      tag_106\n      jump\t// in\n    tag_314:\n        /* \"#utility.yul\":16135:16209   */\n      swap2\n      pop\n        /* \"#utility.yul\":16218:16311   */\n      tag_315\n        /* \"#utility.yul\":16307:16310   */\n      dup3\n        /* \"#utility.yul\":16218:16311   */\n      tag_133\n      jump\t// in\n    tag_315:\n        /* \"#utility.yul\":16336:16338   */\n      0x20\n        /* \"#utility.yul\":16331:16334   */\n      dup3\n        /* \"#utility.yul\":16327:16339   */\n      add\n        /* \"#utility.yul\":16320:16339   */\n      swap1\n      pop\n        /* \"#utility.yul\":15979:16345   */\n      swap2\n      swap1\n      pop\n      jump\t// out\n        /* \"#utility.yul\":16351:16770   */\n    tag_60:\n        /* \"#utility.yul\":16517:16521   */\n      0x00\n        /* \"#utility.yul\":16555:16557   */\n      0x20\n        /* \"#utility.yul\":16544:16553   */\n      dup3\n        /* \"#utility.yul\":16540:16558   */\n      add\n        /* \"#utility.yul\":16532:16558   */\n      swap1\n      pop\n        /* \"#utility.yul\":16604:16613   */\n      dup2\n        /* \"#utility.yul\":16598:16602   */\n      dup2\n        /* \"#utility.yul\":16594:16614   */\n      sub\n        /* \"#utility.yul\":16590:16591   */\n      0x00\n        /* \"#utility.yul\":16579:16588   */\n      dup4\n        /* \"#utility.yul\":16575:16592   */\n      add\n        /* \"#utility.yul\":16568:16615   */\n      mstore\n        /* \"#utility.yul\":16632:16763   */\n      tag_317\n        /* \"#utility.yul\":16758:16762   */\n      dup2\n        /* \"#utility.yul\":16632:16763   */\n      tag_134\n      jump\t// in\n    tag_317:\n        /* \"#utility.yul\":16624:16763   */\n      swap1\n      pop\n        /* \"#utility.yul\":16351:16770   */\n      swap2\n      swap1\n      pop\n      jump\t// out\n        /* \"#utility.yul\":16776:16951   */\n    tag_135:\n        /* \"#utility.yul\":16916:16943   */\n      0x4576656e742068617320616c7265616479206f63637572656400000000000000\n        /* \"#utility.yul\":16912:16913   */\n      0x00\n        /* \"#utility.yul\":16904:16910   */\n      dup3\n        /* \"#utility.yul\":16900:16914   */\n      add\n        /* \"#utility.yul\":16893:16944   */\n      mstore\n        /* \"#utility.yul\":16776:16951   */\n      pop\n      jump\t// out\n        /* \"#utility.yul\":16957:17323   */\n    tag_136:\n        /* \"#utility.yul\":17099:17102   */\n      0x00\n        /* \"#utility.yul\":17120:17187   */\n      tag_320\n        /* \"#utility.yul\":17184:17186   */\n      0x19\n        /* \"#utility.yul\":17179:17182   */\n      dup4\n        /* \"#utility.yul\":17120:17187   */\n      tag_106\n      jump\t// in\n    tag_320:\n        /* \"#utility.yul\":17113:17187   */\n      swap2\n      pop\n        /* \"#utility.yul\":17196:17289   */\n      tag_321\n        /* \"#utility.yul\":17285:17288   */\n      dup3\n        /* \"#utility.yul\":17196:17289   */\n      tag_135\n      jump\t// in\n    tag_321:\n        /* \"#utility.yul\":17314:17316   */\n      0x20\n        /* \"#utility.yul\":17309:17312   */\n      dup3\n        /* \"#utility.yul\":17305:17317   */\n      add\n        /* \"#utility.yul\":17298:17317   */\n      swap1\n      pop\n        /* \"#utility.yul\":16957:17323   */\n      swap2\n      swap1\n      pop\n      jump\t// out\n        /* \"#utility.yul\":17329:17748   */\n    tag_63:\n        /* \"#utility.yul\":17495:17499   */\n      0x00\n        /* \"#utility.yul\":17533:17535   */\n      0x20\n        /* \"#utility.yul\":17522:17531   */\n      dup3\n        /* \"#utility.yul\":17518:17536   */\n      add\n        /* \"#utility.yul\":17510:17536   */\n      swap1\n      pop\n        /* \"#utility.yul\":17582:17591   */\n      dup2\n        /* \"#utility.yul\":17576:17580   */\n      dup2\n        /* \"#utility.yul\":17572:17592   */\n      sub\n        /* \"#utility.yul\":17568:17569   */\n      0x00\n        /* \"#utility.yul\":17557:17566   */\n      dup4\n        /* \"#utility.yul\":17553:17570   */\n      add\n        /* \"#utility.yul\":17546:17593   */\n      mstore\n        /* \"#utility.yul\":17610:17741   */\n      tag_323\n        /* \"#utility.yul\":17736:17740   */\n      dup2\n        /* \"#utility.yul\":17610:17741   */\n      tag_136\n      jump\t// in\n    tag_323:\n        /* \"#utility.yul\":17602:17741   */\n      swap1\n      pop\n        /* \"#utility.yul\":17329:17748   */\n      swap2\n      swap1\n      pop\n      jump\t// out\n        /* \"#utility.yul\":17754:18164   */\n    tag_65:\n        /* \"#utility.yul\":17794:17801   */\n      0x00\n        /* \"#utility.yul\":17817:17837   */\n      tag_325\n        /* \"#utility.yul\":17835:17836   */\n      dup3\n        /* \"#utility.yul\":17817:17837   */\n      tag_99\n      jump\t// in\n    tag_325:\n        /* \"#utility.yul\":17812:17837   */\n      swap2\n      pop\n        /* \"#utility.yul\":17851:17871   */\n      tag_326\n        /* \"#utility.yul\":17869:17870   */\n      dup4\n        /* \"#utility.yul\":17851:17871   */\n      tag_99\n      jump\t// in\n    tag_326:\n        /* \"#utility.yul\":17846:17871   */\n      swap3\n      pop\n        /* \"#utility.yul\":17906:17907   */\n      dup3\n        /* \"#utility.yul\":17903:17904   */\n      dup3\n        /* \"#utility.yul\":17899:17908   */\n      mul\n        /* \"#utility.yul\":17928:17958   */\n      tag_327\n        /* \"#utility.yul\":17946:17957   */\n      dup2\n        /* \"#utility.yul\":17928:17958   */\n      tag_99\n      jump\t// in\n    tag_327:\n        /* \"#utility.yul\":17917:17958   */\n      swap2\n      pop\n        /* \"#utility.yul\":18107:18108   */\n      dup3\n        /* \"#utility.yul\":18098:18105   */\n      dup3\n        /* \"#utility.yul\":18094:18109   */\n      div\n        /* \"#utility.yul\":18091:18092   */\n      dup5\n        /* \"#utility.yul\":18088:18110   */\n      eq\n        /* \"#utility.yul\":18068:18069   */\n      dup4\n        /* \"#utility.yul\":18061:18070   */\n      iszero\n        /* \"#utility.yul\":18041:18124   */\n      or\n        /* \"#utility.yul\":18018:18157   */\n      tag_328\n      jumpi\n        /* \"#utility.yul\":18137:18155   */\n      tag_329\n      tag_132\n      jump\t// in\n    tag_329:\n        /* \"#utility.yul\":18018:18157   */\n    tag_328:\n        /* \"#utility.yul\":17802:18164   */\n      pop\n        /* \"#utility.yul\":17754:18164   */\n      swap3\n      swap2\n      pop\n      pop\n      jump\t// out\n        /* \"#utility.yul\":18170:18340   */\n    tag_137:\n        /* \"#utility.yul\":18310:18332   */\n      0x457468657265206973206e6f7420656e6f756768000000000000000000000000\n        /* \"#utility.yul\":18306:18307   */\n      0x00\n        /* \"#utility.yul\":18298:18304   */\n      dup3\n        /* \"#utility.yul\":18294:18308   */\n      add\n        /* \"#utility.yul\":18287:18333   */\n      mstore\n        /* \"#utility.yul\":18170:18340   */\n      pop\n      jump\t// out\n        /* \"#utility.yul\":18346:18712   */\n    tag_138:\n        /* \"#utility.yul\":18488:18491   */\n      0x00\n        /* \"#utility.yul\":18509:18576   */\n      tag_332\n        /* \"#utility.yul\":18573:18575   */\n      0x14\n        /* \"#utility.yul\":18568:18571   */\n      dup4\n        /* \"#utility.yul\":18509:18576   */\n      tag_106\n      jump\t// in\n    tag_332:\n        /* \"#utility.yul\":18502:18576   */\n      swap2\n      pop\n        /* \"#utility.yul\":18585:18678   */\n      tag_333\n        /* \"#utility.yul\":18674:18677   */\n      dup3\n        /* \"#utility.yul\":18585:18678   */\n      tag_137\n      jump\t// in\n    tag_333:\n        /* \"#utility.yul\":18703:18705   */\n      0x20\n        /* \"#utility.yul\":18698:18701   */\n      dup3\n        /* \"#utility.yul\":18694:18706   */\n      add\n        /* \"#utility.yul\":18687:18706   */\n      swap1\n      pop\n        /* \"#utility.yul\":18346:18712   */\n      swap2\n      swap1\n      pop\n      jump\t// out\n        /* \"#utility.yul\":18718:19137   */\n    tag_68:\n        /* \"#utility.yul\":18884:18888   */\n      0x00\n        /* \"#utility.yul\":18922:18924   */\n      0x20\n        /* \"#utility.yul\":18911:18920   */\n      dup3\n        /* \"#utility.yul\":18907:18925   */\n      add\n        /* \"#utility.yul\":18899:18925   */\n      swap1\n      pop\n        /* \"#utility.yul\":18971:18980   */\n      dup2\n        /* \"#utility.yul\":18965:18969   */\n      dup2\n        /* \"#utility.yul\":18961:18981   */\n      sub\n        /* \"#utility.yul\":18957:18958   */\n      0x00\n        /* \"#utility.yul\":18946:18955   */\n      dup4\n        /* \"#utility.yul\":18942:18959   */\n      add\n        /* \"#utility.yul\":18935:18982   */\n      mstore\n        /* \"#utility.yul\":18999:19130   */\n      tag_335\n        /* \"#utility.yul\":19125:19129   */\n      dup2\n        /* \"#utility.yul\":18999:19130   */\n      tag_138\n      jump\t// in\n    tag_335:\n        /* \"#utility.yul\":18991:19130   */\n      swap1\n      pop\n        /* \"#utility.yul\":18718:19137   */\n      swap2\n      swap1\n      pop\n      jump\t// out\n        /* \"#utility.yul\":19143:19311   */\n    tag_139:\n        /* \"#utility.yul\":19283:19303   */\n      0x4e6f7420656e6f756768207469636b6574730000000000000000000000000000\n        /* \"#utility.yul\":19279:19280   */\n      0x00\n        /* \"#utility.yul\":19271:19277   */\n      dup3\n        /* \"#utility.yul\":19267:19281   */\n      add\n        /* \"#utility.yul\":19260:19304   */\n      mstore\n        /* \"#utility.yul\":19143:19311   */\n      pop\n      jump\t// out\n        /* \"#utility.yul\":19317:19683   */\n    tag_140:\n        /* \"#utility.yul\":19459:19462   */\n      0x00\n        /* \"#utility.yul\":19480:19547   */\n      tag_338\n        /* \"#utility.yul\":19544:19546   */\n      0x12\n        /* \"#utility.yul\":19539:19542   */\n      dup4\n        /* \"#utility.yul\":19480:19547   */\n      tag_106\n      jump\t// in\n    tag_338:\n        /* \"#utility.yul\":19473:19547   */\n      swap2\n      pop\n        /* \"#utility.yul\":19556:19649   */\n      tag_339\n        /* \"#utility.yul\":19645:19648   */\n      dup3\n        /* \"#utility.yul\":19556:19649   */\n      tag_139\n      jump\t// in\n    tag_339:\n        /* \"#utility.yul\":19674:19676   */\n      0x20\n        /* \"#utility.yul\":19669:19672   */\n      dup3\n        /* \"#utility.yul\":19665:19677   */\n      add\n        /* \"#utility.yul\":19658:19677   */\n      swap1\n      pop\n        /* \"#utility.yul\":19317:19683   */\n      swap2\n      swap1\n      pop\n      jump\t// out\n        /* \"#utility.yul\":19689:20108   */\n    tag_71:\n        /* \"#utility.yul\":19855:19859   */\n      0x00\n        /* \"#utility.yul\":19893:19895   */\n      0x20\n        /* \"#utility.yul\":19882:19891   */\n      dup3\n        /* \"#utility.yul\":19878:19896   */\n      add\n        /* \"#utility.yul\":19870:19896   */\n      swap1\n      pop\n        /* \"#utility.yul\":19942:19951   */\n      dup2\n        /* \"#utility.yul\":19936:19940   */\n      dup2\n        /* \"#utility.yul\":19932:19952   */\n      sub\n        /* \"#utility.yul\":19928:19929   */\n      0x00\n        /* \"#utility.yul\":19917:19926   */\n      dup4\n        /* \"#utility.yul\":19913:19930   */\n      add\n        /* \"#utility.yul\":19906:19953   */\n      mstore\n        /* \"#utility.yul\":19970:20101   */\n      tag_341\n        /* \"#utility.yul\":20096:20100   */\n      dup2\n        /* \"#utility.yul\":19970:20101   */\n      tag_140\n      jump\t// in\n    tag_341:\n        /* \"#utility.yul\":19962:20101   */\n      swap1\n      pop\n        /* \"#utility.yul\":19689:20108   */\n      swap2\n      swap1\n      pop\n      jump\t// out\n        /* \"#utility.yul\":20114:20308   */\n    tag_73:\n        /* \"#utility.yul\":20154:20158   */\n      0x00\n        /* \"#utility.yul\":20174:20194   */\n      tag_343\n        /* \"#utility.yul\":20192:20193   */\n      dup3\n        /* \"#utility.yul\":20174:20194   */\n      tag_99\n      jump\t// in\n    tag_343:\n        /* \"#utility.yul\":20169:20194   */\n      swap2\n      pop\n        /* \"#utility.yul\":20208:20228   */\n      tag_344\n        /* \"#utility.yul\":20226:20227   */\n      dup4\n        /* \"#utility.yul\":20208:20228   */\n      tag_99\n      jump\t// in\n    tag_344:\n        /* \"#utility.yul\":20203:20228   */\n      swap3\n      pop\n        /* \"#utility.yul\":20252:20253   */\n      dup3\n        /* \"#utility.yul\":20249:20250   */\n      dup3\n        /* \"#utility.yul\":20245:20254   */\n      sub\n        /* \"#utility.yul\":20237:20254   */\n      swap1\n      pop\n        /* \"#utility.yul\":20276:20277   */\n      dup2\n        /* \"#utility.yul\":20270:20274   */\n      dup2\n        /* \"#utility.yul\":20267:20278   */\n      gt\n        /* \"#utility.yul\":20264:20301   */\n      iszero\n      tag_345\n      jumpi\n        /* \"#utility.yul\":20281:20299   */\n      tag_346\n      tag_132\n      jump\t// in\n    tag_346:\n        /* \"#utility.yul\":20264:20301   */\n    tag_345:\n        /* \"#utility.yul\":20114:20308   */\n      swap3\n      swap2\n      pop\n      pop\n      jump\t// out\n        /* \"#utility.yul\":20314:20505   */\n    tag_75:\n        /* \"#utility.yul\":20354:20357   */\n      0x00\n        /* \"#utility.yul\":20373:20393   */\n      tag_348\n        /* \"#utility.yul\":20391:20392   */\n      dup3\n        /* \"#utility.yul\":20373:20393   */\n      tag_99\n      jump\t// in\n    tag_348:\n        /* \"#utility.yul\":20368:20393   */\n      swap2\n      pop\n        /* \"#utility.yul\":20407:20427   */\n      tag_349\n        /* \"#utility.yul\":20425:20426   */\n      dup4\n        /* \"#utility.yul\":20407:20427   */\n      tag_99\n      jump\t// in\n    tag_349:\n        /* \"#utility.yul\":20402:20427   */\n      swap3\n      pop\n        /* \"#utility.yul\":20450:20451   */\n      dup3\n        /* \"#utility.yul\":20447:20448   */\n      dup3\n        /* \"#utility.yul\":20443:20452   */\n      add\n        /* \"#utility.yul\":20436:20452   */\n      swap1\n      pop\n        /* \"#utility.yul\":20471:20474   */\n      dup1\n        /* \"#utility.yul\":20468:20469   */\n      dup3\n        /* \"#utility.yul\":20465:20475   */\n      gt\n        /* \"#utility.yul\":20462:20498   */\n      iszero\n      tag_350\n      jumpi\n        /* \"#utility.yul\":20478:20496   */\n      tag_351\n      tag_132\n      jump\t// in\n    tag_351:\n        /* \"#utility.yul\":20462:20498   */\n    tag_350:\n        /* \"#utility.yul\":20314:20505   */\n      swap3\n      swap2\n      pop\n      pop\n      jump\t// out\n        /* \"#utility.yul\":20511:20691   */\n    tag_141:\n        /* \"#utility.yul\":20651:20683   */\n      0x596f7520646f6e2774206861766520656e6f756768207469636b6574732e0000\n        /* \"#utility.yul\":20647:20648   */\n      0x00\n        /* \"#utility.yul\":20639:20645   */\n      dup3\n        /* \"#utility.yul\":20635:20649   */\n      add\n        /* \"#utility.yul\":20628:20684   */\n      mstore\n        /* \"#utility.yul\":20511:20691   */\n      pop\n      jump\t// out\n        /* \"#utility.yul\":20697:21063   */\n    tag_142:\n        /* \"#utility.yul\":20839:20842   */\n      0x00\n        /* \"#utility.yul\":20860:20927   */\n      tag_354\n        /* \"#utility.yul\":20924:20926   */\n      0x1e\n        /* \"#utility.yul\":20919:20922   */\n      dup4\n        /* \"#utility.yul\":20860:20927   */\n      tag_106\n      jump\t// in\n    tag_354:\n        /* \"#utility.yul\":20853:20927   */\n      swap2\n      pop\n        /* \"#utility.yul\":20936:21029   */\n      tag_355\n        /* \"#utility.yul\":21025:21028   */\n      dup3\n        /* \"#utility.yul\":20936:21029   */\n      tag_141\n      jump\t// in\n    tag_355:\n        /* \"#utility.yul\":21054:21056   */\n      0x20\n        /* \"#utility.yul\":21049:21052   */\n      dup3\n        /* \"#utility.yul\":21045:21057   */\n      add\n        /* \"#utility.yul\":21038:21057   */\n      swap1\n      pop\n        /* \"#utility.yul\":20697:21063   */\n      swap2\n      swap1\n      pop\n      jump\t// out\n        /* \"#utility.yul\":21069:21488   */\n    tag_83:\n        /* \"#utility.yul\":21235:21239   */\n      0x00\n        /* \"#utility.yul\":21273:21275   */\n      0x20\n        /* \"#utility.yul\":21262:21271   */\n      dup3\n        /* \"#utility.yul\":21258:21276   */\n      add\n        /* \"#utility.yul\":21250:21276   */\n      swap1\n      pop\n        /* \"#utility.yul\":21322:21331   */\n      dup2\n        /* \"#utility.yul\":21316:21320   */\n      dup2\n        /* \"#utility.yul\":21312:21332   */\n      sub\n        /* \"#utility.yul\":21308:21309   */\n      0x00\n        /* \"#utility.yul\":21297:21306   */\n      dup4\n        /* \"#utility.yul\":21293:21310   */\n      add\n        /* \"#utility.yul\":21286:21333   */\n      mstore\n        /* \"#utility.yul\":21350:21481   */\n      tag_357\n        /* \"#utility.yul\":21476:21480   */\n      dup2\n        /* \"#utility.yul\":21350:21481   */\n      tag_142\n      jump\t// in\n    tag_357:\n        /* \"#utility.yul\":21342:21481   */\n      swap1\n      pop\n        /* \"#utility.yul\":21069:21488   */\n      swap2\n      swap1\n      pop\n      jump\t// out\n\n    auxdata: 0xa2646970667358221220cca2ba9f872f871e5f003bf8002d867ad669e435cee09436c3485396194d6bc064736f6c634300081a0033\n}\n",
				"bytecode": {
					"linkReferences": {},
					"object": "6080604052348015600e575f80fd5b5061134c8061001c5f395ff3fe608060405260043610610054575f3560e01c80630374ab0b146100585780630b79143014610080578063298ec208146100c157806361b8ce8c146100dd578063dae7a13c14610107578063f086a09b14610143575b5f80fd5b348015610063575f80fd5b5061007e60048036038101906100799190610940565b61016b565b005b34801561008b575f80fd5b506100a660048036038101906100a191906109c0565b6102e6565b6040516100b896959493929190610a99565b60405180910390f35b6100db60048036038101906100d69190610aff565b6103c2565b005b3480156100e8575f80fd5b506100f1610598565b6040516100fe9190610b3d565b60405180910390f35b348015610112575f80fd5b5061012d60048036038101906101289190610b80565b61059e565b60405161013a9190610b3d565b60405180910390f35b34801561014e575f80fd5b5061016960048036038101906101649190610bbe565b6105be565b005b4283116101ad576040517f08c379a00000000000000000000000000000000000000000000000000000000081526004016101a490610c7e565b60405180910390fd5b5f81116101ef576040517f08c379a00000000000000000000000000000000000000000000000000000000081526004016101e690610d0c565b60405180910390fd5b6040518060c001604052803373ffffffffffffffffffffffffffffffffffffffff168152602001858152602001848152602001838152602001828152602001828152505f8060025481526020019081526020015f205f820151815f015f6101000a81548173ffffffffffffffffffffffffffffffffffffffff021916908373ffffffffffffffffffffffffffffffffffffffff160217905550602082015181600101908161029d9190610f24565b5060408201518160020155606082015181600301556080820151816004015560a0820151816005015590505060025f8154809291906102db90611020565b919050555050505050565b5f602052805f5260405f205f91509050805f015f9054906101000a900473ffffffffffffffffffffffffffffffffffffffff169080600101805461032990610d57565b80601f016020809104026020016040519081016040528092919081815260200182805461035590610d57565b80156103a05780601f10610377576101008083540402835291602001916103a0565b820191905f5260205f20905b81548152906001019060200180831161038357829003601f168201915b5050505050908060020154908060030154908060040154908060050154905086565b5f805f8481526020019081526020015f206002015403610417576040517f08c379a000000000000000000000000000000000000000000000000000000000815260040161040e906110b1565b60405180910390fd5b425f808481526020019081526020015f20600201541161046c576040517f08c379a000000000000000000000000000000000000000000000000000000000815260040161046390611119565b60405180910390fd5b5f805f8481526020019081526020015f20905081816003015461048f9190611137565b34146104d0576040517f08c379a00000000000000000000000000000000000000000000000000000000081526004016104c7906111c2565b60405180910390fd5b8181600501541015610517576040517f08c379a000000000000000000000000000000000000000000000000000000000815260040161050e9061122a565b60405180910390fd5b81816005015f82825461052a9190611248565b925050819055508160015f3373ffffffffffffffffffffffffffffffffffffffff1673ffffffffffffffffffffffffffffffffffffffff1681526020019081526020015f205f8581526020019081526020015f205f82825461058c919061127b565b92505081905550505050565b60025481565b6001602052815f5260405f20602052805f5260405f205f91509150505481565b5f805f8581526020019081526020015f206002015403610613576040517f08c379a000000000000000000000000000000000000000000000000000000000815260040161060a906110b1565b60405180910390fd5b425f808581526020019081526020015f206002015411610668576040517f08c379a000000000000000000000000000000000000000000000000000000000815260040161065f90611119565b60405180910390fd5b8160015f3373ffffffffffffffffffffffffffffffffffffffff1673ffffffffffffffffffffffffffffffffffffffff1681526020019081526020015f205f8581526020019081526020015f205410156106f7576040517f08c379a00000000000000000000000000000000000000000000000000000000081526004016106ee906112f8565b60405180910390fd5b8160015f3373ffffffffffffffffffffffffffffffffffffffff1673ffffffffffffffffffffffffffffffffffffffff1681526020019081526020015f205f8581526020019081526020015f205f8282546107529190611248565b925050819055508160015f8373ffffffffffffffffffffffffffffffffffffffff1673ffffffffffffffffffffffffffffffffffffffff1681526020019081526020015f205f8581526020019081526020015f205f8282546107b4919061127b565b92505081905550505050565b5f604051905090565b5f80fd5b5f80fd5b5f80fd5b5f80fd5b5f601f19601f8301169050919050565b7f4e487b71000000000000000000000000000000000000000000000000000000005f52604160045260245ffd5b61081f826107d9565b810181811067ffffffffffffffff8211171561083e5761083d6107e9565b5b80604052505050565b5f6108506107c0565b905061085c8282610816565b919050565b5f67ffffffffffffffff82111561087b5761087a6107e9565b5b610884826107d9565b9050602081019050919050565b828183375f83830152505050565b5f6108b16108ac84610861565b610847565b9050828152602081018484840111156108cd576108cc6107d5565b5b6108d8848285610891565b509392505050565b5f82601f8301126108f4576108f36107d1565b5b813561090484826020860161089f565b91505092915050565b5f819050919050565b61091f8161090d565b8114610929575f80fd5b50565b5f8135905061093a81610916565b92915050565b5f805f8060808587031215610958576109576107c9565b5b5f85013567ffffffffffffffff811115610975576109746107cd565b5b610981878288016108e0565b94505060206109928782880161092c565b93505060406109a38782880161092c565b92505060606109b48782880161092c565b91505092959194509250565b5f602082840312156109d5576109d46107c9565b5b5f6109e28482850161092c565b91505092915050565b5f73ffffffffffffffffffffffffffffffffffffffff82169050919050565b5f610a14826109eb565b9050919050565b610a2481610a0a565b82525050565b5f81519050919050565b5f82825260208201905092915050565b8281835e5f83830152505050565b5f610a5c82610a2a565b610a668185610a34565b9350610a76818560208601610a44565b610a7f816107d9565b840191505092915050565b610a938161090d565b82525050565b5f60c082019050610aac5f830189610a1b565b8181036020830152610abe8188610a52565b9050610acd6040830187610a8a565b610ada6060830186610a8a565b610ae76080830185610a8a565b610af460a0830184610a8a565b979650505050505050565b5f8060408385031215610b1557610b146107c9565b5b5f610b228582860161092c565b9250506020610b338582860161092c565b9150509250929050565b5f602082019050610b505f830184610a8a565b92915050565b610b5f81610a0a565b8114610b69575f80fd5b50565b5f81359050610b7a81610b56565b92915050565b5f8060408385031215610b9657610b956107c9565b5b5f610ba385828601610b6c565b9250506020610bb48582860161092c565b9150509250929050565b5f805f60608486031215610bd557610bd46107c9565b5b5f610be28682870161092c565b9350506020610bf38682870161092c565b9250506040610c0486828701610b6c565b9150509250925092565b7f596f752063616e206f7267616e697a65206576656e7420666f722066757475725f8201527f6520646174650000000000000000000000000000000000000000000000000000602082015250565b5f610c68602683610a34565b9150610c7382610c0e565b604082019050919050565b5f6020820190508181035f830152610c9581610c5c565b9050919050565b7f596f752063616e206f7267616e697a65206576656e74206f6e6c7920206966205f8201527f796f7520637265617465206d6f7265207468616e2030207469636b6574730000602082015250565b5f610cf6603e83610a34565b9150610d0182610c9c565b604082019050919050565b5f6020820190508181035f830152610d2381610cea565b9050919050565b7f4e487b71000000000000000000000000000000000000000000000000000000005f52602260045260245ffd5b5f6002820490506001821680610d6e57607f821691505b602082108103610d8157610d80610d2a565b5b50919050565b5f819050815f5260205f209050919050565b5f6020601f8301049050919050565b5f82821b905092915050565b5f60088302610de37fffffffffffffffffffffffffffffffffffffffffffffffffffffffffffffffff82610da8565b610ded8683610da8565b95508019841693508086168417925050509392505050565b5f819050919050565b5f610e28610e23610e1e8461090d565b610e05565b61090d565b9050919050565b5f819050919050565b610e4183610e0e565b610e55610e4d82610e2f565b848454610db4565b825550505050565b5f90565b610e69610e5d565b610e74818484610e38565b505050565b5b81811015610e9757610e8c5f82610e61565b600181019050610e7a565b5050565b601f821115610edc57610ead81610d87565b610eb684610d99565b81016020851015610ec5578190505b610ed9610ed185610d99565b830182610e79565b50505b505050565b5f82821c905092915050565b5f610efc5f1984600802610ee1565b1980831691505092915050565b5f610f148383610eed565b9150826002028217905092915050565b610f2d82610a2a565b67ffffffffffffffff811115610f4657610f456107e9565b5b610f508254610d57565b610f5b828285610e9b565b5f60209050601f831160018114610f8c575f8415610f7a578287015190505b610f848582610f09565b865550610feb565b601f198416610f9a86610d87565b5f5b82811015610fc157848901518255600182019150602085019450602081019050610f9c565b86831015610fde5784890151610fda601f891682610eed565b8355505b6001600288020188555050505b505050505050565b7f4e487b71000000000000000000000000000000000000000000000000000000005f52601160045260245ffd5b5f61102a8261090d565b91507fffffffffffffffffffffffffffffffffffffffffffffffffffffffffffffffff820361105c5761105b610ff3565b5b600182019050919050565b7f4576656e7420646f6573206e6f742065786973740000000000000000000000005f82015250565b5f61109b601483610a34565b91506110a682611067565b602082019050919050565b5f6020820190508181035f8301526110c88161108f565b9050919050565b7f4576656e742068617320616c7265616479206f636375726564000000000000005f82015250565b5f611103601983610a34565b915061110e826110cf565b602082019050919050565b5f6020820190508181035f830152611130816110f7565b9050919050565b5f6111418261090d565b915061114c8361090d565b925082820261115a8161090d565b9150828204841483151761117157611170610ff3565b5b5092915050565b7f457468657265206973206e6f7420656e6f7567680000000000000000000000005f82015250565b5f6111ac601483610a34565b91506111b782611178565b602082019050919050565b5f6020820190508181035f8301526111d9816111a0565b9050919050565b7f4e6f7420656e6f756768207469636b65747300000000000000000000000000005f82015250565b5f611214601283610a34565b915061121f826111e0565b602082019050919050565b5f6020820190508181035f83015261124181611208565b9050919050565b5f6112528261090d565b915061125d8361090d565b925082820390508181111561127557611274610ff3565b5b92915050565b5f6112858261090d565b91506112908361090d565b92508282019050808211156112a8576112a7610ff3565b5b92915050565b7f596f7520646f6e2774206861766520656e6f756768207469636b6574732e00005f82015250565b5f6112e2601e83610a34565b91506112ed826112ae565b602082019050919050565b5f6020820190508181035f83015261130f816112d6565b905091905056fea2646970667358221220cca2ba9f872f871e5f003bf8002d867ad669e435cee09436c3485396194d6bc064736f6c634300081a0033",
					"opcodes": "PUSH1 0x80 PUSH1 0x40 MSTORE CALLVALUE DUP1 ISZERO PUSH1 0xE JUMPI PUSH0 DUP1 REVERT JUMPDEST POP PUSH2 0x134C DUP1 PUSH2 0x1C PUSH0 CODECOPY PUSH0 RETURN INVALID PUSH1 0x80 PUSH1 0x40 MSTORE PUSH1 0x4 CALLDATASIZE LT PUSH2 0x54 JUMPI PUSH0 CALLDATALOAD PUSH1 0xE0 SHR DUP1 PUSH4 0x374AB0B EQ PUSH2 0x58 JUMPI DUP1 PUSH4 0xB791430 EQ PUSH2 0x80 JUMPI DUP1 PUSH4 0x298EC208 EQ PUSH2 0xC1 JUMPI DUP1 PUSH4 0x61B8CE8C EQ PUSH2 0xDD JUMPI DUP1 PUSH4 0xDAE7A13C EQ PUSH2 0x107 JUMPI DUP1 PUSH4 0xF086A09B EQ PUSH2 0x143 JUMPI JUMPDEST PUSH0 DUP1 REVERT JUMPDEST CALLVALUE DUP1 ISZERO PUSH2 0x63 JUMPI PUSH0 DUP1 REVERT JUMPDEST POP PUSH2 0x7E PUSH1 0x4 DUP1 CALLDATASIZE SUB DUP2 ADD SWAP1 PUSH2 0x79 SWAP2 SWAP1 PUSH2 0x940 JUMP JUMPDEST PUSH2 0x16B JUMP JUMPDEST STOP JUMPDEST CALLVALUE DUP1 ISZERO PUSH2 0x8B JUMPI PUSH0 DUP1 REVERT JUMPDEST POP PUSH2 0xA6 PUSH1 0x4 DUP1 CALLDATASIZE SUB DUP2 ADD SWAP1 PUSH2 0xA1 SWAP2 SWAP1 PUSH2 0x9C0 JUMP JUMPDEST PUSH2 0x2E6 JUMP JUMPDEST PUSH1 0x40 MLOAD PUSH2 0xB8 SWAP7 SWAP6 SWAP5 SWAP4 SWAP3 SWAP2 SWAP1 PUSH2 0xA99 JUMP JUMPDEST PUSH1 0x40 MLOAD DUP1 SWAP2 SUB SWAP1 RETURN JUMPDEST PUSH2 0xDB PUSH1 0x4 DUP1 CALLDATASIZE SUB DUP2 ADD SWAP1 PUSH2 0xD6 SWAP2 SWAP1 PUSH2 0xAFF JUMP JUMPDEST PUSH2 0x3C2 JUMP JUMPDEST STOP JUMPDEST CALLVALUE DUP1 ISZERO PUSH2 0xE8 JUMPI PUSH0 DUP1 REVERT JUMPDEST POP PUSH2 0xF1 PUSH2 0x598 JUMP JUMPDEST PUSH1 0x40 MLOAD PUSH2 0xFE SWAP2 SWAP1 PUSH2 0xB3D JUMP JUMPDEST PUSH1 0x40 MLOAD DUP1 SWAP2 SUB SWAP1 RETURN JUMPDEST CALLVALUE DUP1 ISZERO PUSH2 0x112 JUMPI PUSH0 DUP1 REVERT JUMPDEST POP PUSH2 0x12D PUSH1 0x4 DUP1 CALLDATASIZE SUB DUP2 ADD SWAP1 PUSH2 0x128 SWAP2 SWAP1 PUSH2 0xB80 JUMP JUMPDEST PUSH2 0x59E JUMP JUMPDEST PUSH1 0x40 MLOAD PUSH2 0x13A SWAP2 SWAP1 PUSH2 0xB3D JUMP JUMPDEST PUSH1 0x40 MLOAD DUP1 SWAP2 SUB SWAP1 RETURN JUMPDEST CALLVALUE DUP1 ISZERO PUSH2 0x14E JUMPI PUSH0 DUP1 REVERT JUMPDEST POP PUSH2 0x169 PUSH1 0x4 DUP1 CALLDATASIZE SUB DUP2 ADD SWAP1 PUSH2 0x164 SWAP2 SWAP1 PUSH2 0xBBE JUMP JUMPDEST PUSH2 0x5BE JUMP JUMPDEST STOP JUMPDEST TIMESTAMP DUP4 GT PUSH2 0x1AD JUMPI PUSH1 0x40 MLOAD PUSH32 0x8C379A000000000000000000000000000000000000000000000000000000000 DUP2 MSTORE PUSH1 0x4 ADD PUSH2 0x1A4 SWAP1 PUSH2 0xC7E JUMP JUMPDEST PUSH1 0x40 MLOAD DUP1 SWAP2 SUB SWAP1 REVERT JUMPDEST PUSH0 DUP2 GT PUSH2 0x1EF JUMPI PUSH1 0x40 MLOAD PUSH32 0x8C379A000000000000000000000000000000000000000000000000000000000 DUP2 MSTORE PUSH1 0x4 ADD PUSH2 0x1E6 SWAP1 PUSH2 0xD0C JUMP JUMPDEST PUSH1 0x40 MLOAD DUP1 SWAP2 SUB SWAP1 REVERT JUMPDEST PUSH1 0x40 MLOAD DUP1 PUSH1 0xC0 ADD PUSH1 0x40 MSTORE DUP1 CALLER PUSH20 0xFFFFFFFFFFFFFFFFFFFFFFFFFFFFFFFFFFFFFFFF AND DUP2 MSTORE PUSH1 0x20 ADD DUP6 DUP2 MSTORE PUSH1 0x20 ADD DUP5 DUP2 MSTORE PUSH1 0x20 ADD DUP4 DUP2 MSTORE PUSH1 0x20 ADD DUP3 DUP2 MSTORE PUSH1 0x20 ADD DUP3 DUP2 MSTORE POP PUSH0 DUP1 PUSH1 0x2 SLOAD DUP2 MSTORE PUSH1 0x20 ADD SWAP1 DUP2 MSTORE PUSH1 0x20 ADD PUSH0 KECCAK256 PUSH0 DUP3 ADD MLOAD DUP2 PUSH0 ADD PUSH0 PUSH2 0x100 EXP DUP2 SLOAD DUP2 PUSH20 0xFFFFFFFFFFFFFFFFFFFFFFFFFFFFFFFFFFFFFFFF MUL NOT AND SWAP1 DUP4 PUSH20 0xFFFFFFFFFFFFFFFFFFFFFFFFFFFFFFFFFFFFFFFF AND MUL OR SWAP1 SSTORE POP PUSH1 0x20 DUP3 ADD MLOAD DUP2 PUSH1 0x1 ADD SWAP1 DUP2 PUSH2 0x29D SWAP2 SWAP1 PUSH2 0xF24 JUMP JUMPDEST POP PUSH1 0x40 DUP3 ADD MLOAD DUP2 PUSH1 0x2 ADD SSTORE PUSH1 0x60 DUP3 ADD MLOAD DUP2 PUSH1 0x3 ADD SSTORE PUSH1 0x80 DUP3 ADD MLOAD DUP2 PUSH1 0x4 ADD SSTORE PUSH1 0xA0 DUP3 ADD MLOAD DUP2 PUSH1 0x5 ADD SSTORE SWAP1 POP POP PUSH1 0x2 PUSH0 DUP2 SLOAD DUP1 SWAP3 SWAP2 SWAP1 PUSH2 0x2DB SWAP1 PUSH2 0x1020 JUMP JUMPDEST SWAP2 SWAP1 POP SSTORE POP POP POP POP POP JUMP JUMPDEST PUSH0 PUSH1 0x20 MSTORE DUP1 PUSH0 MSTORE PUSH1 0x40 PUSH0 KECCAK256 PUSH0 SWAP2 POP SWAP1 POP DUP1 PUSH0 ADD PUSH0 SWAP1 SLOAD SWAP1 PUSH2 0x100 EXP SWAP1 DIV PUSH20 0xFFFFFFFFFFFFFFFFFFFFFFFFFFFFFFFFFFFFFFFF AND SWAP1 DUP1 PUSH1 0x1 ADD DUP1 SLOAD PUSH2 0x329 SWAP1 PUSH2 0xD57 JUMP JUMPDEST DUP1 PUSH1 0x1F ADD PUSH1 0x20 DUP1 SWAP2 DIV MUL PUSH1 0x20 ADD PUSH1 0x40 MLOAD SWAP1 DUP2 ADD PUSH1 0x40 MSTORE DUP1 SWAP3 SWAP2 SWAP1 DUP2 DUP2 MSTORE PUSH1 0x20 ADD DUP3 DUP1 SLOAD PUSH2 0x355 SWAP1 PUSH2 0xD57 JUMP JUMPDEST DUP1 ISZERO PUSH2 0x3A0 JUMPI DUP1 PUSH1 0x1F LT PUSH2 0x377 JUMPI PUSH2 0x100 DUP1 DUP4 SLOAD DIV MUL DUP4 MSTORE SWAP2 PUSH1 0x20 ADD SWAP2 PUSH2 0x3A0 JUMP JUMPDEST DUP3 ADD SWAP2 SWAP1 PUSH0 MSTORE PUSH1 0x20 PUSH0 KECCAK256 SWAP1 JUMPDEST DUP2 SLOAD DUP2 MSTORE SWAP1 PUSH1 0x1 ADD SWAP1 PUSH1 0x20 ADD DUP1 DUP4 GT PUSH2 0x383 JUMPI DUP3 SWAP1 SUB PUSH1 0x1F AND DUP3 ADD SWAP2 JUMPDEST POP POP POP POP POP SWAP1 DUP1 PUSH1 0x2 ADD SLOAD SWAP1 DUP1 PUSH1 0x3 ADD SLOAD SWAP1 DUP1 PUSH1 0x4 ADD SLOAD SWAP1 DUP1 PUSH1 0x5 ADD SLOAD SWAP1 POP DUP7 JUMP JUMPDEST PUSH0 DUP1 PUSH0 DUP5 DUP2 MSTORE PUSH1 0x20 ADD SWAP1 DUP2 MSTORE PUSH1 0x20 ADD PUSH0 KECCAK256 PUSH1 0x2 ADD SLOAD SUB PUSH2 0x417 JUMPI PUSH1 0x40 MLOAD PUSH32 0x8C379A000000000000000000000000000000000000000000000000000000000 DUP2 MSTORE PUSH1 0x4 ADD PUSH2 0x40E SWAP1 PUSH2 0x10B1 JUMP JUMPDEST PUSH1 0x40 MLOAD DUP1 SWAP2 SUB SWAP1 REVERT JUMPDEST TIMESTAMP PUSH0 DUP1 DUP5 DUP2 MSTORE PUSH1 0x20 ADD SWAP1 DUP2 MSTORE PUSH1 0x20 ADD PUSH0 KECCAK256 PUSH1 0x2 ADD SLOAD GT PUSH2 0x46C JUMPI PUSH1 0x40 MLOAD PUSH32 0x8C379A000000000000000000000000000000000000000000000000000000000 DUP2 MSTORE PUSH1 0x4 ADD PUSH2 0x463 SWAP1 PUSH2 0x1119 JUMP JUMPDEST PUSH1 0x40 MLOAD DUP1 SWAP2 SUB SWAP1 REVERT JUMPDEST PUSH0 DUP1 PUSH0 DUP5 DUP2 MSTORE PUSH1 0x20 ADD SWAP1 DUP2 MSTORE PUSH1 0x20 ADD PUSH0 KECCAK256 SWAP1 POP DUP2 DUP2 PUSH1 0x3 ADD SLOAD PUSH2 0x48F SWAP2 SWAP1 PUSH2 0x1137 JUMP JUMPDEST CALLVALUE EQ PUSH2 0x4D0 JUMPI PUSH1 0x40 MLOAD PUSH32 0x8C379A000000000000000000000000000000000000000000000000000000000 DUP2 MSTORE PUSH1 0x4 ADD PUSH2 0x4C7 SWAP1 PUSH2 0x11C2 JUMP JUMPDEST PUSH1 0x40 MLOAD DUP1 SWAP2 SUB SWAP1 REVERT JUMPDEST DUP2 DUP2 PUSH1 0x5 ADD SLOAD LT ISZERO PUSH2 0x517 JUMPI PUSH1 0x40 MLOAD PUSH32 0x8C379A000000000000000000000000000000000000000000000000000000000 DUP2 MSTORE PUSH1 0x4 ADD PUSH2 0x50E SWAP1 PUSH2 0x122A JUMP JUMPDEST PUSH1 0x40 MLOAD DUP1 SWAP2 SUB SWAP1 REVERT JUMPDEST DUP2 DUP2 PUSH1 0x5 ADD PUSH0 DUP3 DUP3 SLOAD PUSH2 0x52A SWAP2 SWAP1 PUSH2 0x1248 JUMP JUMPDEST SWAP3 POP POP DUP2 SWAP1 SSTORE POP DUP2 PUSH1 0x1 PUSH0 CALLER PUSH20 0xFFFFFFFFFFFFFFFFFFFFFFFFFFFFFFFFFFFFFFFF AND PUSH20 0xFFFFFFFFFFFFFFFFFFFFFFFFFFFFFFFFFFFFFFFF AND DUP2 MSTORE PUSH1 0x20 ADD SWAP1 DUP2 MSTORE PUSH1 0x20 ADD PUSH0 KECCAK256 PUSH0 DUP6 DUP2 MSTORE PUSH1 0x20 ADD SWAP1 DUP2 MSTORE PUSH1 0x20 ADD PUSH0 KECCAK256 PUSH0 DUP3 DUP3 SLOAD PUSH2 0x58C SWAP2 SWAP1 PUSH2 0x127B JUMP JUMPDEST SWAP3 POP POP DUP2 SWAP1 SSTORE POP POP POP POP JUMP JUMPDEST PUSH1 0x2 SLOAD DUP2 JUMP JUMPDEST PUSH1 0x1 PUSH1 0x20 MSTORE DUP2 PUSH0 MSTORE PUSH1 0x40 PUSH0 KECCAK256 PUSH1 0x20 MSTORE DUP1 PUSH0 MSTORE PUSH1 0x40 PUSH0 KECCAK256 PUSH0 SWAP2 POP SWAP2 POP POP SLOAD DUP2 JUMP JUMPDEST PUSH0 DUP1 PUSH0 DUP6 DUP2 MSTORE PUSH1 0x20 ADD SWAP1 DUP2 MSTORE PUSH1 0x20 ADD PUSH0 KECCAK256 PUSH1 0x2 ADD SLOAD SUB PUSH2 0x613 JUMPI PUSH1 0x40 MLOAD PUSH32 0x8C379A000000000000000000000000000000000000000000000000000000000 DUP2 MSTORE PUSH1 0x4 ADD PUSH2 0x60A SWAP1 PUSH2 0x10B1 JUMP JUMPDEST PUSH1 0x40 MLOAD DUP1 SWAP2 SUB SWAP1 REVERT JUMPDEST TIMESTAMP PUSH0 DUP1 DUP6 DUP2 MSTORE PUSH1 0x20 ADD SWAP1 DUP2 MSTORE PUSH1 0x20 ADD PUSH0 KECCAK256 PUSH1 0x2 ADD SLOAD GT PUSH2 0x668 JUMPI PUSH1 0x40 MLOAD PUSH32 0x8C379A000000000000000000000000000000000000000000000000000000000 DUP2 MSTORE PUSH1 0x4 ADD PUSH2 0x65F SWAP1 PUSH2 0x1119 JUMP JUMPDEST PUSH1 0x40 MLOAD DUP1 SWAP2 SUB SWAP1 REVERT JUMPDEST DUP2 PUSH1 0x1 PUSH0 CALLER PUSH20 0xFFFFFFFFFFFFFFFFFFFFFFFFFFFFFFFFFFFFFFFF AND PUSH20 0xFFFFFFFFFFFFFFFFFFFFFFFFFFFFFFFFFFFFFFFF AND DUP2 MSTORE PUSH1 0x20 ADD SWAP1 DUP2 MSTORE PUSH1 0x20 ADD PUSH0 KECCAK256 PUSH0 DUP6 DUP2 MSTORE PUSH1 0x20 ADD SWAP1 DUP2 MSTORE PUSH1 0x20 ADD PUSH0 KECCAK256 SLOAD LT ISZERO PUSH2 0x6F7 JUMPI PUSH1 0x40 MLOAD PUSH32 0x8C379A000000000000000000000000000000000000000000000000000000000 DUP2 MSTORE PUSH1 0x4 ADD PUSH2 0x6EE SWAP1 PUSH2 0x12F8 JUMP JUMPDEST PUSH1 0x40 MLOAD DUP1 SWAP2 SUB SWAP1 REVERT JUMPDEST DUP2 PUSH1 0x1 PUSH0 CALLER PUSH20 0xFFFFFFFFFFFFFFFFFFFFFFFFFFFFFFFFFFFFFFFF AND PUSH20 0xFFFFFFFFFFFFFFFFFFFFFFFFFFFFFFFFFFFFFFFF AND DUP2 MSTORE PUSH1 0x20 ADD SWAP1 DUP2 MSTORE PUSH1 0x20 ADD PUSH0 KECCAK256 PUSH0 DUP6 DUP2 MSTORE PUSH1 0x20 ADD SWAP1 DUP2 MSTORE PUSH1 0x20 ADD PUSH0 KECCAK256 PUSH0 DUP3 DUP3 SLOAD PUSH2 0x752 SWAP2 SWAP1 PUSH2 0x1248 JUMP JUMPDEST SWAP3 POP POP DUP2 SWAP1 SSTORE POP DUP2 PUSH1 0x1 PUSH0 DUP4 PUSH20 0xFFFFFFFFFFFFFFFFFFFFFFFFFFFFFFFFFFFFFFFF AND PUSH20 0xFFFFFFFFFFFFFFFFFFFFFFFFFFFFFFFFFFFFFFFF AND DUP2 MSTORE PUSH1 0x20 ADD SWAP1 DUP2 MSTORE PUSH1 0x20 ADD PUSH0 KECCAK256 PUSH0 DUP6 DUP2 MSTORE PUSH1 0x20 ADD SWAP1 DUP2 MSTORE PUSH1 0x20 ADD PUSH0 KECCAK256 PUSH0 DUP3 DUP3 SLOAD PUSH2 0x7B4 SWAP2 SWAP1 PUSH2 0x127B JUMP JUMPDEST SWAP3 POP POP DUP2 SWAP1 SSTORE POP POP POP POP JUMP JUMPDEST PUSH0 PUSH1 0x40 MLOAD SWAP1 POP SWAP1 JUMP JUMPDEST PUSH0 DUP1 REVERT JUMPDEST PUSH0 DUP1 REVERT JUMPDEST PUSH0 DUP1 REVERT JUMPDEST PUSH0 DUP1 REVERT JUMPDEST PUSH0 PUSH1 0x1F NOT PUSH1 0x1F DUP4 ADD AND SWAP1 POP SWAP2 SWAP1 POP JUMP JUMPDEST PUSH32 0x4E487B7100000000000000000000000000000000000000000000000000000000 PUSH0 MSTORE PUSH1 0x41 PUSH1 0x4 MSTORE PUSH1 0x24 PUSH0 REVERT JUMPDEST PUSH2 0x81F DUP3 PUSH2 0x7D9 JUMP JUMPDEST DUP2 ADD DUP2 DUP2 LT PUSH8 0xFFFFFFFFFFFFFFFF DUP3 GT OR ISZERO PUSH2 0x83E JUMPI PUSH2 0x83D PUSH2 0x7E9 JUMP JUMPDEST JUMPDEST DUP1 PUSH1 0x40 MSTORE POP POP POP JUMP JUMPDEST PUSH0 PUSH2 0x850 PUSH2 0x7C0 JUMP JUMPDEST SWAP1 POP PUSH2 0x85C DUP3 DUP3 PUSH2 0x816 JUMP JUMPDEST SWAP2 SWAP1 POP JUMP JUMPDEST PUSH0 PUSH8 0xFFFFFFFFFFFFFFFF DUP3 GT ISZERO PUSH2 0x87B JUMPI PUSH2 0x87A PUSH2 0x7E9 JUMP JUMPDEST JUMPDEST PUSH2 0x884 DUP3 PUSH2 0x7D9 JUMP JUMPDEST SWAP1 POP PUSH1 0x20 DUP2 ADD SWAP1 POP SWAP2 SWAP1 POP JUMP JUMPDEST DUP3 DUP2 DUP4 CALLDATACOPY PUSH0 DUP4 DUP4 ADD MSTORE POP POP POP JUMP JUMPDEST PUSH0 PUSH2 0x8B1 PUSH2 0x8AC DUP5 PUSH2 0x861 JUMP JUMPDEST PUSH2 0x847 JUMP JUMPDEST SWAP1 POP DUP3 DUP2 MSTORE PUSH1 0x20 DUP2 ADD DUP5 DUP5 DUP5 ADD GT ISZERO PUSH2 0x8CD JUMPI PUSH2 0x8CC PUSH2 0x7D5 JUMP JUMPDEST JUMPDEST PUSH2 0x8D8 DUP5 DUP3 DUP6 PUSH2 0x891 JUMP JUMPDEST POP SWAP4 SWAP3 POP POP POP JUMP JUMPDEST PUSH0 DUP3 PUSH1 0x1F DUP4 ADD SLT PUSH2 0x8F4 JUMPI PUSH2 0x8F3 PUSH2 0x7D1 JUMP JUMPDEST JUMPDEST DUP2 CALLDATALOAD PUSH2 0x904 DUP5 DUP3 PUSH1 0x20 DUP7 ADD PUSH2 0x89F JUMP JUMPDEST SWAP2 POP POP SWAP3 SWAP2 POP POP JUMP JUMPDEST PUSH0 DUP2 SWAP1 POP SWAP2 SWAP1 POP JUMP JUMPDEST PUSH2 0x91F DUP2 PUSH2 0x90D JUMP JUMPDEST DUP2 EQ PUSH2 0x929 JUMPI PUSH0 DUP1 REVERT JUMPDEST POP JUMP JUMPDEST PUSH0 DUP2 CALLDATALOAD SWAP1 POP PUSH2 0x93A DUP2 PUSH2 0x916 JUMP JUMPDEST SWAP3 SWAP2 POP POP JUMP JUMPDEST PUSH0 DUP1 PUSH0 DUP1 PUSH1 0x80 DUP6 DUP8 SUB SLT ISZERO PUSH2 0x958 JUMPI PUSH2 0x957 PUSH2 0x7C9 JUMP JUMPDEST JUMPDEST PUSH0 DUP6 ADD CALLDATALOAD PUSH8 0xFFFFFFFFFFFFFFFF DUP2 GT ISZERO PUSH2 0x975 JUMPI PUSH2 0x974 PUSH2 0x7CD JUMP JUMPDEST JUMPDEST PUSH2 0x981 DUP8 DUP3 DUP9 ADD PUSH2 0x8E0 JUMP JUMPDEST SWAP5 POP POP PUSH1 0x20 PUSH2 0x992 DUP8 DUP3 DUP9 ADD PUSH2 0x92C JUMP JUMPDEST SWAP4 POP POP PUSH1 0x40 PUSH2 0x9A3 DUP8 DUP3 DUP9 ADD PUSH2 0x92C JUMP JUMPDEST SWAP3 POP POP PUSH1 0x60 PUSH2 0x9B4 DUP8 DUP3 DUP9 ADD PUSH2 0x92C JUMP JUMPDEST SWAP2 POP POP SWAP3 SWAP6 SWAP2 SWAP5 POP SWAP3 POP JUMP JUMPDEST PUSH0 PUSH1 0x20 DUP3 DUP5 SUB SLT ISZERO PUSH2 0x9D5 JUMPI PUSH2 0x9D4 PUSH2 0x7C9 JUMP JUMPDEST JUMPDEST PUSH0 PUSH2 0x9E2 DUP5 DUP3 DUP6 ADD PUSH2 0x92C JUMP JUMPDEST SWAP2 POP POP SWAP3 SWAP2 POP POP JUMP JUMPDEST PUSH0 PUSH20 0xFFFFFFFFFFFFFFFFFFFFFFFFFFFFFFFFFFFFFFFF DUP3 AND SWAP1 POP SWAP2 SWAP1 POP JUMP JUMPDEST PUSH0 PUSH2 0xA14 DUP3 PUSH2 0x9EB JUMP JUMPDEST SWAP1 POP SWAP2 SWAP1 POP JUMP JUMPDEST PUSH2 0xA24 DUP2 PUSH2 0xA0A JUMP JUMPDEST DUP3 MSTORE POP POP JUMP JUMPDEST PUSH0 DUP2 MLOAD SWAP1 POP SWAP2 SWAP1 POP JUMP JUMPDEST PUSH0 DUP3 DUP3 MSTORE PUSH1 0x20 DUP3 ADD SWAP1 POP SWAP3 SWAP2 POP POP JUMP JUMPDEST DUP3 DUP2 DUP4 MCOPY PUSH0 DUP4 DUP4 ADD MSTORE POP POP POP JUMP JUMPDEST PUSH0 PUSH2 0xA5C DUP3 PUSH2 0xA2A JUMP JUMPDEST PUSH2 0xA66 DUP2 DUP6 PUSH2 0xA34 JUMP JUMPDEST SWAP4 POP PUSH2 0xA76 DUP2 DUP6 PUSH1 0x20 DUP7 ADD PUSH2 0xA44 JUMP JUMPDEST PUSH2 0xA7F DUP2 PUSH2 0x7D9 JUMP JUMPDEST DUP5 ADD SWAP2 POP POP SWAP3 SWAP2 POP POP JUMP JUMPDEST PUSH2 0xA93 DUP2 PUSH2 0x90D JUMP JUMPDEST DUP3 MSTORE POP POP JUMP JUMPDEST PUSH0 PUSH1 0xC0 DUP3 ADD SWAP1 POP PUSH2 0xAAC PUSH0 DUP4 ADD DUP10 PUSH2 0xA1B JUMP JUMPDEST DUP2 DUP2 SUB PUSH1 0x20 DUP4 ADD MSTORE PUSH2 0xABE DUP2 DUP9 PUSH2 0xA52 JUMP JUMPDEST SWAP1 POP PUSH2 0xACD PUSH1 0x40 DUP4 ADD DUP8 PUSH2 0xA8A JUMP JUMPDEST PUSH2 0xADA PUSH1 0x60 DUP4 ADD DUP7 PUSH2 0xA8A JUMP JUMPDEST PUSH2 0xAE7 PUSH1 0x80 DUP4 ADD DUP6 PUSH2 0xA8A JUMP JUMPDEST PUSH2 0xAF4 PUSH1 0xA0 DUP4 ADD DUP5 PUSH2 0xA8A JUMP JUMPDEST SWAP8 SWAP7 POP POP POP POP POP POP POP JUMP JUMPDEST PUSH0 DUP1 PUSH1 0x40 DUP4 DUP6 SUB SLT ISZERO PUSH2 0xB15 JUMPI PUSH2 0xB14 PUSH2 0x7C9 JUMP JUMPDEST JUMPDEST PUSH0 PUSH2 0xB22 DUP6 DUP3 DUP7 ADD PUSH2 0x92C JUMP JUMPDEST SWAP3 POP POP PUSH1 0x20 PUSH2 0xB33 DUP6 DUP3 DUP7 ADD PUSH2 0x92C JUMP JUMPDEST SWAP2 POP POP SWAP3 POP SWAP3 SWAP1 POP JUMP JUMPDEST PUSH0 PUSH1 0x20 DUP3 ADD SWAP1 POP PUSH2 0xB50 PUSH0 DUP4 ADD DUP5 PUSH2 0xA8A JUMP JUMPDEST SWAP3 SWAP2 POP POP JUMP JUMPDEST PUSH2 0xB5F DUP2 PUSH2 0xA0A JUMP JUMPDEST DUP2 EQ PUSH2 0xB69 JUMPI PUSH0 DUP1 REVERT JUMPDEST POP JUMP JUMPDEST PUSH0 DUP2 CALLDATALOAD SWAP1 POP PUSH2 0xB7A DUP2 PUSH2 0xB56 JUMP JUMPDEST SWAP3 SWAP2 POP POP JUMP JUMPDEST PUSH0 DUP1 PUSH1 0x40 DUP4 DUP6 SUB SLT ISZERO PUSH2 0xB96 JUMPI PUSH2 0xB95 PUSH2 0x7C9 JUMP JUMPDEST JUMPDEST PUSH0 PUSH2 0xBA3 DUP6 DUP3 DUP7 ADD PUSH2 0xB6C JUMP JUMPDEST SWAP3 POP POP PUSH1 0x20 PUSH2 0xBB4 DUP6 DUP3 DUP7 ADD PUSH2 0x92C JUMP JUMPDEST SWAP2 POP POP SWAP3 POP SWAP3 SWAP1 POP JUMP JUMPDEST PUSH0 DUP1 PUSH0 PUSH1 0x60 DUP5 DUP7 SUB SLT ISZERO PUSH2 0xBD5 JUMPI PUSH2 0xBD4 PUSH2 0x7C9 JUMP JUMPDEST JUMPDEST PUSH0 PUSH2 0xBE2 DUP7 DUP3 DUP8 ADD PUSH2 0x92C JUMP JUMPDEST SWAP4 POP POP PUSH1 0x20 PUSH2 0xBF3 DUP7 DUP3 DUP8 ADD PUSH2 0x92C JUMP JUMPDEST SWAP3 POP POP PUSH1 0x40 PUSH2 0xC04 DUP7 DUP3 DUP8 ADD PUSH2 0xB6C JUMP JUMPDEST SWAP2 POP POP SWAP3 POP SWAP3 POP SWAP3 JUMP JUMPDEST PUSH32 0x596F752063616E206F7267616E697A65206576656E7420666F72206675747572 PUSH0 DUP3 ADD MSTORE PUSH32 0x6520646174650000000000000000000000000000000000000000000000000000 PUSH1 0x20 DUP3 ADD MSTORE POP JUMP JUMPDEST PUSH0 PUSH2 0xC68 PUSH1 0x26 DUP4 PUSH2 0xA34 JUMP JUMPDEST SWAP2 POP PUSH2 0xC73 DUP3 PUSH2 0xC0E JUMP JUMPDEST PUSH1 0x40 DUP3 ADD SWAP1 POP SWAP2 SWAP1 POP JUMP JUMPDEST PUSH0 PUSH1 0x20 DUP3 ADD SWAP1 POP DUP2 DUP2 SUB PUSH0 DUP4 ADD MSTORE PUSH2 0xC95 DUP2 PUSH2 0xC5C JUMP JUMPDEST SWAP1 POP SWAP2 SWAP1 POP JUMP JUMPDEST PUSH32 0x596F752063616E206F7267616E697A65206576656E74206F6E6C792020696620 PUSH0 DUP3 ADD MSTORE PUSH32 0x796F7520637265617465206D6F7265207468616E2030207469636B6574730000 PUSH1 0x20 DUP3 ADD MSTORE POP JUMP JUMPDEST PUSH0 PUSH2 0xCF6 PUSH1 0x3E DUP4 PUSH2 0xA34 JUMP JUMPDEST SWAP2 POP PUSH2 0xD01 DUP3 PUSH2 0xC9C JUMP JUMPDEST PUSH1 0x40 DUP3 ADD SWAP1 POP SWAP2 SWAP1 POP JUMP JUMPDEST PUSH0 PUSH1 0x20 DUP3 ADD SWAP1 POP DUP2 DUP2 SUB PUSH0 DUP4 ADD MSTORE PUSH2 0xD23 DUP2 PUSH2 0xCEA JUMP JUMPDEST SWAP1 POP SWAP2 SWAP1 POP JUMP JUMPDEST PUSH32 0x4E487B7100000000000000000000000000000000000000000000000000000000 PUSH0 MSTORE PUSH1 0x22 PUSH1 0x4 MSTORE PUSH1 0x24 PUSH0 REVERT JUMPDEST PUSH0 PUSH1 0x2 DUP3 DIV SWAP1 POP PUSH1 0x1 DUP3 AND DUP1 PUSH2 0xD6E JUMPI PUSH1 0x7F DUP3 AND SWAP2 POP JUMPDEST PUSH1 0x20 DUP3 LT DUP2 SUB PUSH2 0xD81 JUMPI PUSH2 0xD80 PUSH2 0xD2A JUMP JUMPDEST JUMPDEST POP SWAP2 SWAP1 POP JUMP JUMPDEST PUSH0 DUP2 SWAP1 POP DUP2 PUSH0 MSTORE PUSH1 0x20 PUSH0 KECCAK256 SWAP1 POP SWAP2 SWAP1 POP JUMP JUMPDEST PUSH0 PUSH1 0x20 PUSH1 0x1F DUP4 ADD DIV SWAP1 POP SWAP2 SWAP1 POP JUMP JUMPDEST PUSH0 DUP3 DUP3 SHL SWAP1 POP SWAP3 SWAP2 POP POP JUMP JUMPDEST PUSH0 PUSH1 0x8 DUP4 MUL PUSH2 0xDE3 PUSH32 0xFFFFFFFFFFFFFFFFFFFFFFFFFFFFFFFFFFFFFFFFFFFFFFFFFFFFFFFFFFFFFFFF DUP3 PUSH2 0xDA8 JUMP JUMPDEST PUSH2 0xDED DUP7 DUP4 PUSH2 0xDA8 JUMP JUMPDEST SWAP6 POP DUP1 NOT DUP5 AND SWAP4 POP DUP1 DUP7 AND DUP5 OR SWAP3 POP POP POP SWAP4 SWAP3 POP POP POP JUMP JUMPDEST PUSH0 DUP2 SWAP1 POP SWAP2 SWAP1 POP JUMP JUMPDEST PUSH0 PUSH2 0xE28 PUSH2 0xE23 PUSH2 0xE1E DUP5 PUSH2 0x90D JUMP JUMPDEST PUSH2 0xE05 JUMP JUMPDEST PUSH2 0x90D JUMP JUMPDEST SWAP1 POP SWAP2 SWAP1 POP JUMP JUMPDEST PUSH0 DUP2 SWAP1 POP SWAP2 SWAP1 POP JUMP JUMPDEST PUSH2 0xE41 DUP4 PUSH2 0xE0E JUMP JUMPDEST PUSH2 0xE55 PUSH2 0xE4D DUP3 PUSH2 0xE2F JUMP JUMPDEST DUP5 DUP5 SLOAD PUSH2 0xDB4 JUMP JUMPDEST DUP3 SSTORE POP POP POP POP JUMP JUMPDEST PUSH0 SWAP1 JUMP JUMPDEST PUSH2 0xE69 PUSH2 0xE5D JUMP JUMPDEST PUSH2 0xE74 DUP2 DUP5 DUP5 PUSH2 0xE38 JUMP JUMPDEST POP POP POP JUMP JUMPDEST JUMPDEST DUP2 DUP2 LT ISZERO PUSH2 0xE97 JUMPI PUSH2 0xE8C PUSH0 DUP3 PUSH2 0xE61 JUMP JUMPDEST PUSH1 0x1 DUP2 ADD SWAP1 POP PUSH2 0xE7A JUMP JUMPDEST POP POP JUMP JUMPDEST PUSH1 0x1F DUP3 GT ISZERO PUSH2 0xEDC JUMPI PUSH2 0xEAD DUP2 PUSH2 0xD87 JUMP JUMPDEST PUSH2 0xEB6 DUP5 PUSH2 0xD99 JUMP JUMPDEST DUP2 ADD PUSH1 0x20 DUP6 LT ISZERO PUSH2 0xEC5 JUMPI DUP2 SWAP1 POP JUMPDEST PUSH2 0xED9 PUSH2 0xED1 DUP6 PUSH2 0xD99 JUMP JUMPDEST DUP4 ADD DUP3 PUSH2 0xE79 JUMP JUMPDEST POP POP JUMPDEST POP POP POP JUMP JUMPDEST PUSH0 DUP3 DUP3 SHR SWAP1 POP SWAP3 SWAP2 POP POP JUMP JUMPDEST PUSH0 PUSH2 0xEFC PUSH0 NOT DUP5 PUSH1 0x8 MUL PUSH2 0xEE1 JUMP JUMPDEST NOT DUP1 DUP4 AND SWAP2 POP POP SWAP3 SWAP2 POP POP JUMP JUMPDEST PUSH0 PUSH2 0xF14 DUP4 DUP4 PUSH2 0xEED JUMP JUMPDEST SWAP2 POP DUP3 PUSH1 0x2 MUL DUP3 OR SWAP1 POP SWAP3 SWAP2 POP POP JUMP JUMPDEST PUSH2 0xF2D DUP3 PUSH2 0xA2A JUMP JUMPDEST PUSH8 0xFFFFFFFFFFFFFFFF DUP2 GT ISZERO PUSH2 0xF46 JUMPI PUSH2 0xF45 PUSH2 0x7E9 JUMP JUMPDEST JUMPDEST PUSH2 0xF50 DUP3 SLOAD PUSH2 0xD57 JUMP JUMPDEST PUSH2 0xF5B DUP3 DUP3 DUP6 PUSH2 0xE9B JUMP JUMPDEST PUSH0 PUSH1 0x20 SWAP1 POP PUSH1 0x1F DUP4 GT PUSH1 0x1 DUP2 EQ PUSH2 0xF8C JUMPI PUSH0 DUP5 ISZERO PUSH2 0xF7A JUMPI DUP3 DUP8 ADD MLOAD SWAP1 POP JUMPDEST PUSH2 0xF84 DUP6 DUP3 PUSH2 0xF09 JUMP JUMPDEST DUP7 SSTORE POP PUSH2 0xFEB JUMP JUMPDEST PUSH1 0x1F NOT DUP5 AND PUSH2 0xF9A DUP7 PUSH2 0xD87 JUMP JUMPDEST PUSH0 JUMPDEST DUP3 DUP2 LT ISZERO PUSH2 0xFC1 JUMPI DUP5 DUP10 ADD MLOAD DUP3 SSTORE PUSH1 0x1 DUP3 ADD SWAP2 POP PUSH1 0x20 DUP6 ADD SWAP5 POP PUSH1 0x20 DUP2 ADD SWAP1 POP PUSH2 0xF9C JUMP JUMPDEST DUP7 DUP4 LT ISZERO PUSH2 0xFDE JUMPI DUP5 DUP10 ADD MLOAD PUSH2 0xFDA PUSH1 0x1F DUP10 AND DUP3 PUSH2 0xEED JUMP JUMPDEST DUP4 SSTORE POP JUMPDEST PUSH1 0x1 PUSH1 0x2 DUP9 MUL ADD DUP9 SSTORE POP POP POP JUMPDEST POP POP POP POP POP POP JUMP JUMPDEST PUSH32 0x4E487B7100000000000000000000000000000000000000000000000000000000 PUSH0 MSTORE PUSH1 0x11 PUSH1 0x4 MSTORE PUSH1 0x24 PUSH0 REVERT JUMPDEST PUSH0 PUSH2 0x102A DUP3 PUSH2 0x90D JUMP JUMPDEST SWAP2 POP PUSH32 0xFFFFFFFFFFFFFFFFFFFFFFFFFFFFFFFFFFFFFFFFFFFFFFFFFFFFFFFFFFFFFFFF DUP3 SUB PUSH2 0x105C JUMPI PUSH2 0x105B PUSH2 0xFF3 JUMP JUMPDEST JUMPDEST PUSH1 0x1 DUP3 ADD SWAP1 POP SWAP2 SWAP1 POP JUMP JUMPDEST PUSH32 0x4576656E7420646F6573206E6F74206578697374000000000000000000000000 PUSH0 DUP3 ADD MSTORE POP JUMP JUMPDEST PUSH0 PUSH2 0x109B PUSH1 0x14 DUP4 PUSH2 0xA34 JUMP JUMPDEST SWAP2 POP PUSH2 0x10A6 DUP3 PUSH2 0x1067 JUMP JUMPDEST PUSH1 0x20 DUP3 ADD SWAP1 POP SWAP2 SWAP1 POP JUMP JUMPDEST PUSH0 PUSH1 0x20 DUP3 ADD SWAP1 POP DUP2 DUP2 SUB PUSH0 DUP4 ADD MSTORE PUSH2 0x10C8 DUP2 PUSH2 0x108F JUMP JUMPDEST SWAP1 POP SWAP2 SWAP1 POP JUMP JUMPDEST PUSH32 0x4576656E742068617320616C7265616479206F63637572656400000000000000 PUSH0 DUP3 ADD MSTORE POP JUMP JUMPDEST PUSH0 PUSH2 0x1103 PUSH1 0x19 DUP4 PUSH2 0xA34 JUMP JUMPDEST SWAP2 POP PUSH2 0x110E DUP3 PUSH2 0x10CF JUMP JUMPDEST PUSH1 0x20 DUP3 ADD SWAP1 POP SWAP2 SWAP1 POP JUMP JUMPDEST PUSH0 PUSH1 0x20 DUP3 ADD SWAP1 POP DUP2 DUP2 SUB PUSH0 DUP4 ADD MSTORE PUSH2 0x1130 DUP2 PUSH2 0x10F7 JUMP JUMPDEST SWAP1 POP SWAP2 SWAP1 POP JUMP JUMPDEST PUSH0 PUSH2 0x1141 DUP3 PUSH2 0x90D JUMP JUMPDEST SWAP2 POP PUSH2 0x114C DUP4 PUSH2 0x90D JUMP JUMPDEST SWAP3 POP DUP3 DUP3 MUL PUSH2 0x115A DUP2 PUSH2 0x90D JUMP JUMPDEST SWAP2 POP DUP3 DUP3 DIV DUP5 EQ DUP4 ISZERO OR PUSH2 0x1171 JUMPI PUSH2 0x1170 PUSH2 0xFF3 JUMP JUMPDEST JUMPDEST POP SWAP3 SWAP2 POP POP JUMP JUMPDEST PUSH32 0x457468657265206973206E6F7420656E6F756768000000000000000000000000 PUSH0 DUP3 ADD MSTORE POP JUMP JUMPDEST PUSH0 PUSH2 0x11AC PUSH1 0x14 DUP4 PUSH2 0xA34 JUMP JUMPDEST SWAP2 POP PUSH2 0x11B7 DUP3 PUSH2 0x1178 JUMP JUMPDEST PUSH1 0x20 DUP3 ADD SWAP1 POP SWAP2 SWAP1 POP JUMP JUMPDEST PUSH0 PUSH1 0x20 DUP3 ADD SWAP1 POP DUP2 DUP2 SUB PUSH0 DUP4 ADD MSTORE PUSH2 0x11D9 DUP2 PUSH2 0x11A0 JUMP JUMPDEST SWAP1 POP SWAP2 SWAP1 POP JUMP JUMPDEST PUSH32 0x4E6F7420656E6F756768207469636B6574730000000000000000000000000000 PUSH0 DUP3 ADD MSTORE POP JUMP JUMPDEST PUSH0 PUSH2 0x1214 PUSH1 0x12 DUP4 PUSH2 0xA34 JUMP JUMPDEST SWAP2 POP PUSH2 0x121F DUP3 PUSH2 0x11E0 JUMP JUMPDEST PUSH1 0x20 DUP3 ADD SWAP1 POP SWAP2 SWAP1 POP JUMP JUMPDEST PUSH0 PUSH1 0x20 DUP3 ADD SWAP1 POP DUP2 DUP2 SUB PUSH0 DUP4 ADD MSTORE PUSH2 0x1241 DUP2 PUSH2 0x1208 JUMP JUMPDEST SWAP1 POP SWAP2 SWAP1 POP JUMP JUMPDEST PUSH0 PUSH2 0x1252 DUP3 PUSH2 0x90D JUMP JUMPDEST SWAP2 POP PUSH2 0x125D DUP4 PUSH2 0x90D JUMP JUMPDEST SWAP3 POP DUP3 DUP3 SUB SWAP1 POP DUP2 DUP2 GT ISZERO PUSH2 0x1275 JUMPI PUSH2 0x1274 PUSH2 0xFF3 JUMP JUMPDEST JUMPDEST SWAP3 SWAP2 POP POP JUMP JUMPDEST PUSH0 PUSH2 0x1285 DUP3 PUSH2 0x90D JUMP JUMPDEST SWAP2 POP PUSH2 0x1290 DUP4 PUSH2 0x90D JUMP JUMPDEST SWAP3 POP DUP3 DUP3 ADD SWAP1 POP DUP1 DUP3 GT ISZERO PUSH2 0x12A8 JUMPI PUSH2 0x12A7 PUSH2 0xFF3 JUMP JUMPDEST JUMPDEST SWAP3 SWAP2 POP POP JUMP JUMPDEST PUSH32 0x596F7520646F6E2774206861766520656E6F756768207469636B6574732E0000 PUSH0 DUP3 ADD MSTORE POP JUMP JUMPDEST PUSH0 PUSH2 0x12E2 PUSH1 0x1E DUP4 PUSH2 0xA34 JUMP JUMPDEST SWAP2 POP PUSH2 0x12ED DUP3 PUSH2 0x12AE JUMP JUMPDEST PUSH1 0x20 DUP3 ADD SWAP1 POP SWAP2 SWAP1 POP JUMP JUMPDEST PUSH0 PUSH1 0x20 DUP3 ADD SWAP1 POP DUP2 DUP2 SUB PUSH0 DUP4 ADD MSTORE PUSH2 0x130F DUP2 PUSH2 0x12D6 JUMP JUMPDEST SWAP1 POP SWAP2 SWAP1 POP JUMP INVALID LOG2 PUSH5 0x6970667358 0x22 SLT KECCAK256 0xCC LOG2 0xBA SWAP16 DUP8 0x2F DUP8 0x1E PUSH0 STOP EXTCODESIZE 0xF8 STOP 0x2D DUP7 PUSH27 0xD669E435CEE09436C3485396194D6BC064736F6C634300081A0033 "
				},
				"gasEstimates": {
					"creation": {
						"codeDepositCost": "988000",
						"executionCost": "1025",
						"totalCost": "989025"
					},
					"external": {
						"buyTicket(uint256,uint256)": "infinite",
						"createEvent(string,uint256,uint256,uint256)": "infinite",
						"events(uint256)": "infinite",
						"nextId()": "2469",
						"tickets(address,uint256)": "infinite",
						"transferTicket(uint256,uint256,address)": "infinite"
					}
				},
				"methodIdentifiers": {
					"buyTicket(uint256,uint256)": "298ec208",
					"createEvent(string,uint256,uint256,uint256)": "0374ab0b",
					"events(uint256)": "0b791430",
					"nextId()": "61b8ce8c",
					"tickets(address,uint256)": "dae7a13c",
					"transferTicket(uint256,uint256,address)": "f086a09b"
				}
			},
			"storageLayout": {
				"storage": [
					{
						"astId": 19,
						"contract": "contracts/_demo.sol:EventContract",
						"label": "events",
						"offset": 0,
						"slot": "0",
						"type": "t_mapping(t_uint256,t_struct(Event)14_storage)"
					},
					{
						"astId": 25,
						"contract": "contracts/_demo.sol:EventContract",
						"label": "tickets",
						"offset": 0,
						"slot": "1",
						"type": "t_mapping(t_address,t_mapping(t_uint256,t_uint256))"
					},
					{
						"astId": 27,
						"contract": "contracts/_demo.sol:EventContract",
						"label": "nextId",
						"offset": 0,
						"slot": "2",
						"type": "t_uint256"
					}
				],
				"types": {
					"t_address": {
						"encoding": "inplace",
						"label": "address",
						"numberOfBytes": "20"
					},
					"t_mapping(t_address,t_mapping(t_uint256,t_uint256))": {
						"encoding": "mapping",
						"key": "t_address",
						"label": "mapping(address => mapping(uint256 => uint256))",
						"numberOfBytes": "32",
						"value": "t_mapping(t_uint256,t_uint256)"
					},
					"t_mapping(t_uint256,t_struct(Event)14_storage)": {
						"encoding": "mapping",
						"key": "t_uint256",
						"label": "mapping(uint256 => struct EventContract.Event)",
						"numberOfBytes": "32",
						"value": "t_struct(Event)14_storage"
					},
					"t_mapping(t_uint256,t_uint256)": {
						"encoding": "mapping",
						"key": "t_uint256",
						"label": "mapping(uint256 => uint256)",
						"numberOfBytes": "32",
						"value": "t_uint256"
					},
					"t_string_storage": {
						"encoding": "bytes",
						"label": "string",
						"numberOfBytes": "32"
					},
					"t_struct(Event)14_storage": {
						"encoding": "inplace",
						"label": "struct EventContract.Event",
						"members": [
							{
								"astId": 3,
								"contract": "contracts/_demo.sol:EventContract",
								"label": "organizer",
								"offset": 0,
								"slot": "0",
								"type": "t_address"
							},
							{
								"astId": 5,
								"contract": "contracts/_demo.sol:EventContract",
								"label": "name",
								"offset": 0,
								"slot": "1",
								"type": "t_string_storage"
							},
							{
								"astId": 7,
								"contract": "contracts/_demo.sol:EventContract",
								"label": "date",
								"offset": 0,
								"slot": "2",
								"type": "t_uint256"
							},
							{
								"astId": 9,
								"contract": "contracts/_demo.sol:EventContract",
								"label": "price",
								"offset": 0,
								"slot": "3",
								"type": "t_uint256"
							},
							{
								"astId": 11,
								"contract": "contracts/_demo.sol:EventContract",
								"label": "ticketCount",
								"offset": 0,
								"slot": "4",
								"type": "t_uint256"
							},
							{
								"astId": 13,
								"contract": "contracts/_demo.sol:EventContract",
								"label": "ticketRemain",
								"offset": 0,
								"slot": "5",
								"type": "t_uint256"
							}
						],
						"numberOfBytes": "192"
					},
					"t_uint256": {
						"encoding": "inplace",
						"label": "uint256",
						"numberOfBytes": "32"
					}
				}
			},
			"userdoc": {
				"kind": "user",
				"methods": {},
				"version": 1
			}
		}
	}
}